{
  "contracts/Lottery.sol": {
    "Lottery": {
      "abi": [
        {
          "inputs": [
            {
              "internalType": "address",
              "name": "vrfCoordinator",
              "type": "address"
            },
            {
              "internalType": "uint256",
              "name": "ethAmount",
              "type": "uint256"
            },
            {
              "internalType": "bytes32",
              "name": "keyHash",
              "type": "bytes32"
            },
            {
              "internalType": "uint64",
              "name": "subscriptionId",
              "type": "uint64"
            },
            {
              "internalType": "uint32",
              "name": "callbackGasLimit",
              "type": "uint32"
            }
          ],
          "stateMutability": "nonpayable",
          "type": "constructor"
        },
        {
          "inputs": [],
          "name": "Lottery__EthIsNotEnough",
          "type": "error"
        },
        {
          "inputs": [],
          "name": "Lottery__TransferFailed",
          "type": "error"
        },
        {
          "inputs": [
            {
              "internalType": "address",
              "name": "have",
              "type": "address"
            },
            {
              "internalType": "address",
              "name": "want",
              "type": "address"
            }
          ],
          "name": "OnlyCoordinatorCanFulfill",
          "type": "error"
        },
        {
          "anonymous": false,
          "inputs": [
            {
              "indexed": true,
              "internalType": "address",
              "name": "player",
              "type": "address"
            }
          ],
          "name": "lotteryFund",
          "type": "event"
        },
        {
          "anonymous": false,
          "inputs": [
            {
              "indexed": false,
              "internalType": "uint256",
              "name": "requestId",
              "type": "uint256"
            }
          ],
          "name": "requestedRandomWinner",
          "type": "event"
        },
        {
          "anonymous": false,
          "inputs": [
            {
              "indexed": false,
              "internalType": "address",
              "name": "randomWinner",
              "type": "address"
            }
          ],
          "name": "winnerAddress",
          "type": "event"
        },
        {
          "inputs": [],
          "name": "fundLottery",
          "outputs": [],
          "stateMutability": "payable",
          "type": "function"
        },
        {
          "inputs": [],
          "name": "getEthAmount",
          "outputs": [
            {
              "internalType": "uint256",
              "name": "",
              "type": "uint256"
            }
          ],
          "stateMutability": "view",
          "type": "function"
        },
        {
          "inputs": [
            {
              "internalType": "uint256",
              "name": "index",
              "type": "uint256"
            }
          ],
          "name": "getPlayer",
          "outputs": [
            {
              "internalType": "address",
              "name": "",
              "type": "address"
            }
          ],
          "stateMutability": "view",
          "type": "function"
        },
        {
          "inputs": [],
          "name": "getRecentWinner",
          "outputs": [
            {
              "internalType": "address",
              "name": "",
              "type": "address"
            }
          ],
          "stateMutability": "view",
          "type": "function"
        },
        {
          "inputs": [
            {
              "internalType": "uint256",
              "name": "requestId",
              "type": "uint256"
            },
            {
              "internalType": "uint256[]",
              "name": "randomWords",
              "type": "uint256[]"
            }
          ],
          "name": "rawFulfillRandomWords",
          "outputs": [],
          "stateMutability": "nonpayable",
          "type": "function"
        },
        {
          "inputs": [],
          "name": "requestRandomWinner",
          "outputs": [],
          "stateMutability": "nonpayable",
          "type": "function"
        }
      ],
      "devdoc": {
        "kind": "dev",
        "methods": {},
        "version": 1
      },
      "evm": {
        "bytecode": {
          "linkReferences": {},
          "object": "6101406040523480156200001257600080fd5b5060405162000f2538038062000f2583398181016040528101906200003891906200016e565b848073ffffffffffffffffffffffffffffffffffffffff1660808173ffffffffffffffffffffffffffffffffffffffff1660601b81525050508360a081815250508473ffffffffffffffffffffffffffffffffffffffff1660c08173ffffffffffffffffffffffffffffffffffffffff1660601b815250508260e081815250508167ffffffffffffffff166101008167ffffffffffffffff1660c01b815250508063ffffffff166101208163ffffffff1660e01b815250505050505050620002e9565b6000815190506200010c8162000267565b92915050565b600081519050620001238162000281565b92915050565b6000815190506200013a816200029b565b92915050565b6000815190506200015181620002b5565b92915050565b6000815190506200016881620002cf565b92915050565b600080600080600060a086880312156200018d576200018c62000262565b5b60006200019d88828901620000fb565b9550506020620001b08882890162000129565b9450506040620001c38882890162000112565b9350506060620001d68882890162000157565b9250506080620001e98882890162000140565b9150509295509295909350565b6000620002038262000214565b9050919050565b6000819050919050565b600073ffffffffffffffffffffffffffffffffffffffff82169050919050565b6000819050919050565b600063ffffffff82169050919050565b600067ffffffffffffffff82169050919050565b600080fd5b6200027281620001f6565b81146200027e57600080fd5b50565b6200028c816200020a565b81146200029857600080fd5b50565b620002a68162000234565b8114620002b257600080fd5b50565b620002c0816200023e565b8114620002cc57600080fd5b50565b620002da816200024e565b8114620002e657600080fd5b50565b60805160601c60a05160c05160601c60e0516101005160c01c6101205160e01c610bd26200035360003960006102cd015260006102aa015260006102890152600061024d01526000818161013b015261039e01526000818161016101526101b50152610bd26000f3fe6080604052600436106100555760003560e01c8063087d01df1461005a5780631fe543e314610085578063473f1ddc146100ae578063522a1f0b146100d9578063b5cc4539146100f0578063e55ae4e8146100fa575b600080fd5b34801561006657600080fd5b5061006f610137565b60405161007c9190610949565b60405180910390f35b34801561009157600080fd5b506100ac60048036038101906100a7919061079a565b61015f565b005b3480156100ba57600080fd5b506100c361021f565b6040516100d09190610897565b60405180910390f35b3480156100e557600080fd5b506100ee610249565b005b6100f861039c565b005b34801561010657600080fd5b50610121600480360381019061011c9190610740565b61049e565b60405161012e9190610897565b60405180910390f35b60007f0000000000000000000000000000000000000000000000000000000000000000905090565b7f000000000000000000000000000000000000000000000000000000000000000073ffffffffffffffffffffffffffffffffffffffff163373ffffffffffffffffffffffffffffffffffffffff161461021157337f00000000000000000000000000000000000000000000000000000000000000006040517f1cf993f40000000000000000000000000000000000000000000000000000000081526004016102089291906108cd565b60405180910390fd5b61021b82826104e5565b5050565b6000600160009054906101000a900473ffffffffffffffffffffffffffffffffffffffff16905090565b60007f000000000000000000000000000000000000000000000000000000000000000073ffffffffffffffffffffffffffffffffffffffff16635d3b1d307f00000000000000000000000000000000000000000000000000000000000000007f000000000000000000000000000000000000000000000000000000000000000060037f000000000000000000000000000000000000000000000000000000000000000060016040518663ffffffff1660e01b815260040161030e9594939291906108f6565b602060405180830381600087803b15801561032857600080fd5b505af115801561033c573d6000803e3d6000fd5b505050506040513d601f19601f82011682018060405250810190610360919061076d565b90507fdd178cd66913b03cc6ff7831dcbaab26c0ba151b22ace716e22f93551917c87c816040516103919190610949565b60405180910390a150565b7f00000000000000000000000000000000000000000000000000000000000000003410156103f6576040517f6bcdbf0200000000000000000000000000000000000000000000000000000000815260040160405180910390fd5b6000339080600181540180825580915050600190039060005260206000200160009091909190916101000a81548173ffffffffffffffffffffffffffffffffffffffff021916908373ffffffffffffffffffffffffffffffffffffffff1602179055503373ffffffffffffffffffffffffffffffffffffffff167f1e387e9bc77e6bf4c9773912b8be31aa329afd7fe0acfd57f5dadb739de8765e60405160405180910390a2565b60008082815481106104b3576104b2610aff565b5b9060005260206000200160009054906101000a900473ffffffffffffffffffffffffffffffffffffffff169050919050565b6000808054905082600081518110610500576104ff610aff565b5b60200260200101516105129190610a9f565b9050600080828154811061052957610528610aff565b5b9060005260206000200160009054906101000a900473ffffffffffffffffffffffffffffffffffffffff16905080600160006101000a81548173ffffffffffffffffffffffffffffffffffffffff021916908373ffffffffffffffffffffffffffffffffffffffff16021790555060008173ffffffffffffffffffffffffffffffffffffffff16476040516105bd90610882565b60006040518083038185875af1925050503d80600081146105fa576040519150601f19603f3d011682016040523d82523d6000602084013e6105ff565b606091505b505090508061063a576040517f1c94012000000000000000000000000000000000000000000000000000000000815260040160405180910390fd5b7f97327fd6694d3df45480784b7731f13ecffcae0f296816eec3de6f43bf02f7288260405161066991906108b2565b60405180910390a15050505050565b600061068b61068684610989565b610964565b905080838252602082019050828560208602820111156106ae576106ad610b62565b5b60005b858110156106de57816106c48882610716565b8452602084019350602083019250506001810190506106b1565b5050509392505050565b600082601f8301126106fd576106fc610b5d565b5b813561070d848260208601610678565b91505092915050565b60008135905061072581610b85565b92915050565b60008151905061073a81610b85565b92915050565b60006020828403121561075657610755610b6c565b5b600061076484828501610716565b91505092915050565b60006020828403121561078357610782610b6c565b5b60006107918482850161072b565b91505092915050565b600080604083850312156107b1576107b0610b6c565b5b60006107bf85828601610716565b925050602083013567ffffffffffffffff8111156107e0576107df610b67565b5b6107ec858286016106e8565b9150509250929050565b6107ff81610a38565b82525050565b61080e816109c0565b82525050565b61081d816109d2565b82525050565b60006108306000836109b5565b915061083b82610b82565b600082019050919050565b61084f816109dc565b82525050565b61085e81610a0a565b82525050565b61086d81610a14565b82525050565b61087c81610a24565b82525050565b600061088d82610823565b9150819050919050565b60006020820190506108ac6000830184610805565b92915050565b60006020820190506108c760008301846107f6565b92915050565b60006040820190506108e26000830185610805565b6108ef6020830184610805565b9392505050565b600060a08201905061090b6000830188610814565b6109186020830187610873565b6109256040830186610846565b6109326060830185610864565b61093f6080830184610864565b9695505050505050565b600060208201905061095e6000830184610855565b92915050565b600061096e61097f565b905061097a8282610a6e565b919050565b6000604051905090565b600067ffffffffffffffff8211156109a4576109a3610b2e565b5b602082029050602081019050919050565b600081905092915050565b60006109cb826109ea565b9050919050565b6000819050919050565b600061ffff82169050919050565b600073ffffffffffffffffffffffffffffffffffffffff82169050919050565b6000819050919050565b600063ffffffff82169050919050565b600067ffffffffffffffff82169050919050565b6000610a4382610a4a565b9050919050565b6000610a5582610a5c565b9050919050565b6000610a67826109ea565b9050919050565b610a7782610b71565b810181811067ffffffffffffffff82111715610a9657610a95610b2e565b5b80604052505050565b6000610aaa82610a0a565b9150610ab583610a0a565b925082610ac557610ac4610ad0565b5b828206905092915050565b7f4e487b7100000000000000000000000000000000000000000000000000000000600052601260045260246000fd5b7f4e487b7100000000000000000000000000000000000000000000000000000000600052603260045260246000fd5b7f4e487b7100000000000000000000000000000000000000000000000000000000600052604160045260246000fd5b600080fd5b600080fd5b600080fd5b600080fd5b6000601f19601f8301169050919050565b50565b610b8e81610a0a565b8114610b9957600080fd5b5056fea26469706673582212200969015f65dd3c6699ac1dd601a27df90fa937aaa101a457ed733939180ce18264736f6c63430008070033",
          "opcodes": "PUSH2 0x140 PUSH1 0x40 MSTORE CALLVALUE DUP1 ISZERO PUSH3 0x12 JUMPI PUSH1 0x0 DUP1 REVERT JUMPDEST POP PUSH1 0x40 MLOAD PUSH3 0xF25 CODESIZE SUB DUP1 PUSH3 0xF25 DUP4 CODECOPY DUP2 DUP2 ADD PUSH1 0x40 MSTORE DUP2 ADD SWAP1 PUSH3 0x38 SWAP2 SWAP1 PUSH3 0x16E JUMP JUMPDEST DUP5 DUP1 PUSH20 0xFFFFFFFFFFFFFFFFFFFFFFFFFFFFFFFFFFFFFFFF AND PUSH1 0x80 DUP2 PUSH20 0xFFFFFFFFFFFFFFFFFFFFFFFFFFFFFFFFFFFFFFFF AND PUSH1 0x60 SHL DUP2 MSTORE POP POP POP DUP4 PUSH1 0xA0 DUP2 DUP2 MSTORE POP POP DUP5 PUSH20 0xFFFFFFFFFFFFFFFFFFFFFFFFFFFFFFFFFFFFFFFF AND PUSH1 0xC0 DUP2 PUSH20 0xFFFFFFFFFFFFFFFFFFFFFFFFFFFFFFFFFFFFFFFF AND PUSH1 0x60 SHL DUP2 MSTORE POP POP DUP3 PUSH1 0xE0 DUP2 DUP2 MSTORE POP POP DUP2 PUSH8 0xFFFFFFFFFFFFFFFF AND PUSH2 0x100 DUP2 PUSH8 0xFFFFFFFFFFFFFFFF AND PUSH1 0xC0 SHL DUP2 MSTORE POP POP DUP1 PUSH4 0xFFFFFFFF AND PUSH2 0x120 DUP2 PUSH4 0xFFFFFFFF AND PUSH1 0xE0 SHL DUP2 MSTORE POP POP POP POP POP POP POP PUSH3 0x2E9 JUMP JUMPDEST PUSH1 0x0 DUP2 MLOAD SWAP1 POP PUSH3 0x10C DUP2 PUSH3 0x267 JUMP JUMPDEST SWAP3 SWAP2 POP POP JUMP JUMPDEST PUSH1 0x0 DUP2 MLOAD SWAP1 POP PUSH3 0x123 DUP2 PUSH3 0x281 JUMP JUMPDEST SWAP3 SWAP2 POP POP JUMP JUMPDEST PUSH1 0x0 DUP2 MLOAD SWAP1 POP PUSH3 0x13A DUP2 PUSH3 0x29B JUMP JUMPDEST SWAP3 SWAP2 POP POP JUMP JUMPDEST PUSH1 0x0 DUP2 MLOAD SWAP1 POP PUSH3 0x151 DUP2 PUSH3 0x2B5 JUMP JUMPDEST SWAP3 SWAP2 POP POP JUMP JUMPDEST PUSH1 0x0 DUP2 MLOAD SWAP1 POP PUSH3 0x168 DUP2 PUSH3 0x2CF JUMP JUMPDEST SWAP3 SWAP2 POP POP JUMP JUMPDEST PUSH1 0x0 DUP1 PUSH1 0x0 DUP1 PUSH1 0x0 PUSH1 0xA0 DUP7 DUP9 SUB SLT ISZERO PUSH3 0x18D JUMPI PUSH3 0x18C PUSH3 0x262 JUMP JUMPDEST JUMPDEST PUSH1 0x0 PUSH3 0x19D DUP9 DUP3 DUP10 ADD PUSH3 0xFB JUMP JUMPDEST SWAP6 POP POP PUSH1 0x20 PUSH3 0x1B0 DUP9 DUP3 DUP10 ADD PUSH3 0x129 JUMP JUMPDEST SWAP5 POP POP PUSH1 0x40 PUSH3 0x1C3 DUP9 DUP3 DUP10 ADD PUSH3 0x112 JUMP JUMPDEST SWAP4 POP POP PUSH1 0x60 PUSH3 0x1D6 DUP9 DUP3 DUP10 ADD PUSH3 0x157 JUMP JUMPDEST SWAP3 POP POP PUSH1 0x80 PUSH3 0x1E9 DUP9 DUP3 DUP10 ADD PUSH3 0x140 JUMP JUMPDEST SWAP2 POP POP SWAP3 SWAP6 POP SWAP3 SWAP6 SWAP1 SWAP4 POP JUMP JUMPDEST PUSH1 0x0 PUSH3 0x203 DUP3 PUSH3 0x214 JUMP JUMPDEST SWAP1 POP SWAP2 SWAP1 POP JUMP JUMPDEST PUSH1 0x0 DUP2 SWAP1 POP SWAP2 SWAP1 POP JUMP JUMPDEST PUSH1 0x0 PUSH20 0xFFFFFFFFFFFFFFFFFFFFFFFFFFFFFFFFFFFFFFFF DUP3 AND SWAP1 POP SWAP2 SWAP1 POP JUMP JUMPDEST PUSH1 0x0 DUP2 SWAP1 POP SWAP2 SWAP1 POP JUMP JUMPDEST PUSH1 0x0 PUSH4 0xFFFFFFFF DUP3 AND SWAP1 POP SWAP2 SWAP1 POP JUMP JUMPDEST PUSH1 0x0 PUSH8 0xFFFFFFFFFFFFFFFF DUP3 AND SWAP1 POP SWAP2 SWAP1 POP JUMP JUMPDEST PUSH1 0x0 DUP1 REVERT JUMPDEST PUSH3 0x272 DUP2 PUSH3 0x1F6 JUMP JUMPDEST DUP2 EQ PUSH3 0x27E JUMPI PUSH1 0x0 DUP1 REVERT JUMPDEST POP JUMP JUMPDEST PUSH3 0x28C DUP2 PUSH3 0x20A JUMP JUMPDEST DUP2 EQ PUSH3 0x298 JUMPI PUSH1 0x0 DUP1 REVERT JUMPDEST POP JUMP JUMPDEST PUSH3 0x2A6 DUP2 PUSH3 0x234 JUMP JUMPDEST DUP2 EQ PUSH3 0x2B2 JUMPI PUSH1 0x0 DUP1 REVERT JUMPDEST POP JUMP JUMPDEST PUSH3 0x2C0 DUP2 PUSH3 0x23E JUMP JUMPDEST DUP2 EQ PUSH3 0x2CC JUMPI PUSH1 0x0 DUP1 REVERT JUMPDEST POP JUMP JUMPDEST PUSH3 0x2DA DUP2 PUSH3 0x24E JUMP JUMPDEST DUP2 EQ PUSH3 0x2E6 JUMPI PUSH1 0x0 DUP1 REVERT JUMPDEST POP JUMP JUMPDEST PUSH1 0x80 MLOAD PUSH1 0x60 SHR PUSH1 0xA0 MLOAD PUSH1 0xC0 MLOAD PUSH1 0x60 SHR PUSH1 0xE0 MLOAD PUSH2 0x100 MLOAD PUSH1 0xC0 SHR PUSH2 0x120 MLOAD PUSH1 0xE0 SHR PUSH2 0xBD2 PUSH3 0x353 PUSH1 0x0 CODECOPY PUSH1 0x0 PUSH2 0x2CD ADD MSTORE PUSH1 0x0 PUSH2 0x2AA ADD MSTORE PUSH1 0x0 PUSH2 0x289 ADD MSTORE PUSH1 0x0 PUSH2 0x24D ADD MSTORE PUSH1 0x0 DUP2 DUP2 PUSH2 0x13B ADD MSTORE PUSH2 0x39E ADD MSTORE PUSH1 0x0 DUP2 DUP2 PUSH2 0x161 ADD MSTORE PUSH2 0x1B5 ADD MSTORE PUSH2 0xBD2 PUSH1 0x0 RETURN INVALID PUSH1 0x80 PUSH1 0x40 MSTORE PUSH1 0x4 CALLDATASIZE LT PUSH2 0x55 JUMPI PUSH1 0x0 CALLDATALOAD PUSH1 0xE0 SHR DUP1 PUSH4 0x87D01DF EQ PUSH2 0x5A JUMPI DUP1 PUSH4 0x1FE543E3 EQ PUSH2 0x85 JUMPI DUP1 PUSH4 0x473F1DDC EQ PUSH2 0xAE JUMPI DUP1 PUSH4 0x522A1F0B EQ PUSH2 0xD9 JUMPI DUP1 PUSH4 0xB5CC4539 EQ PUSH2 0xF0 JUMPI DUP1 PUSH4 0xE55AE4E8 EQ PUSH2 0xFA JUMPI JUMPDEST PUSH1 0x0 DUP1 REVERT JUMPDEST CALLVALUE DUP1 ISZERO PUSH2 0x66 JUMPI PUSH1 0x0 DUP1 REVERT JUMPDEST POP PUSH2 0x6F PUSH2 0x137 JUMP JUMPDEST PUSH1 0x40 MLOAD PUSH2 0x7C SWAP2 SWAP1 PUSH2 0x949 JUMP JUMPDEST PUSH1 0x40 MLOAD DUP1 SWAP2 SUB SWAP1 RETURN JUMPDEST CALLVALUE DUP1 ISZERO PUSH2 0x91 JUMPI PUSH1 0x0 DUP1 REVERT JUMPDEST POP PUSH2 0xAC PUSH1 0x4 DUP1 CALLDATASIZE SUB DUP2 ADD SWAP1 PUSH2 0xA7 SWAP2 SWAP1 PUSH2 0x79A JUMP JUMPDEST PUSH2 0x15F JUMP JUMPDEST STOP JUMPDEST CALLVALUE DUP1 ISZERO PUSH2 0xBA JUMPI PUSH1 0x0 DUP1 REVERT JUMPDEST POP PUSH2 0xC3 PUSH2 0x21F JUMP JUMPDEST PUSH1 0x40 MLOAD PUSH2 0xD0 SWAP2 SWAP1 PUSH2 0x897 JUMP JUMPDEST PUSH1 0x40 MLOAD DUP1 SWAP2 SUB SWAP1 RETURN JUMPDEST CALLVALUE DUP1 ISZERO PUSH2 0xE5 JUMPI PUSH1 0x0 DUP1 REVERT JUMPDEST POP PUSH2 0xEE PUSH2 0x249 JUMP JUMPDEST STOP JUMPDEST PUSH2 0xF8 PUSH2 0x39C JUMP JUMPDEST STOP JUMPDEST CALLVALUE DUP1 ISZERO PUSH2 0x106 JUMPI PUSH1 0x0 DUP1 REVERT JUMPDEST POP PUSH2 0x121 PUSH1 0x4 DUP1 CALLDATASIZE SUB DUP2 ADD SWAP1 PUSH2 0x11C SWAP2 SWAP1 PUSH2 0x740 JUMP JUMPDEST PUSH2 0x49E JUMP JUMPDEST PUSH1 0x40 MLOAD PUSH2 0x12E SWAP2 SWAP1 PUSH2 0x897 JUMP JUMPDEST PUSH1 0x40 MLOAD DUP1 SWAP2 SUB SWAP1 RETURN JUMPDEST PUSH1 0x0 PUSH32 0x0 SWAP1 POP SWAP1 JUMP JUMPDEST PUSH32 0x0 PUSH20 0xFFFFFFFFFFFFFFFFFFFFFFFFFFFFFFFFFFFFFFFF AND CALLER PUSH20 0xFFFFFFFFFFFFFFFFFFFFFFFFFFFFFFFFFFFFFFFF AND EQ PUSH2 0x211 JUMPI CALLER PUSH32 0x0 PUSH1 0x40 MLOAD PUSH32 0x1CF993F400000000000000000000000000000000000000000000000000000000 DUP2 MSTORE PUSH1 0x4 ADD PUSH2 0x208 SWAP3 SWAP2 SWAP1 PUSH2 0x8CD JUMP JUMPDEST PUSH1 0x40 MLOAD DUP1 SWAP2 SUB SWAP1 REVERT JUMPDEST PUSH2 0x21B DUP3 DUP3 PUSH2 0x4E5 JUMP JUMPDEST POP POP JUMP JUMPDEST PUSH1 0x0 PUSH1 0x1 PUSH1 0x0 SWAP1 SLOAD SWAP1 PUSH2 0x100 EXP SWAP1 DIV PUSH20 0xFFFFFFFFFFFFFFFFFFFFFFFFFFFFFFFFFFFFFFFF AND SWAP1 POP SWAP1 JUMP JUMPDEST PUSH1 0x0 PUSH32 0x0 PUSH20 0xFFFFFFFFFFFFFFFFFFFFFFFFFFFFFFFFFFFFFFFF AND PUSH4 0x5D3B1D30 PUSH32 0x0 PUSH32 0x0 PUSH1 0x3 PUSH32 0x0 PUSH1 0x1 PUSH1 0x40 MLOAD DUP7 PUSH4 0xFFFFFFFF AND PUSH1 0xE0 SHL DUP2 MSTORE PUSH1 0x4 ADD PUSH2 0x30E SWAP6 SWAP5 SWAP4 SWAP3 SWAP2 SWAP1 PUSH2 0x8F6 JUMP JUMPDEST PUSH1 0x20 PUSH1 0x40 MLOAD DUP1 DUP4 SUB DUP2 PUSH1 0x0 DUP8 DUP1 EXTCODESIZE ISZERO DUP1 ISZERO PUSH2 0x328 JUMPI PUSH1 0x0 DUP1 REVERT JUMPDEST POP GAS CALL ISZERO DUP1 ISZERO PUSH2 0x33C JUMPI RETURNDATASIZE PUSH1 0x0 DUP1 RETURNDATACOPY RETURNDATASIZE PUSH1 0x0 REVERT JUMPDEST POP POP POP POP PUSH1 0x40 MLOAD RETURNDATASIZE PUSH1 0x1F NOT PUSH1 0x1F DUP3 ADD AND DUP3 ADD DUP1 PUSH1 0x40 MSTORE POP DUP2 ADD SWAP1 PUSH2 0x360 SWAP2 SWAP1 PUSH2 0x76D JUMP JUMPDEST SWAP1 POP PUSH32 0xDD178CD66913B03CC6FF7831DCBAAB26C0BA151B22ACE716E22F93551917C87C DUP2 PUSH1 0x40 MLOAD PUSH2 0x391 SWAP2 SWAP1 PUSH2 0x949 JUMP JUMPDEST PUSH1 0x40 MLOAD DUP1 SWAP2 SUB SWAP1 LOG1 POP JUMP JUMPDEST PUSH32 0x0 CALLVALUE LT ISZERO PUSH2 0x3F6 JUMPI PUSH1 0x40 MLOAD PUSH32 0x6BCDBF0200000000000000000000000000000000000000000000000000000000 DUP2 MSTORE PUSH1 0x4 ADD PUSH1 0x40 MLOAD DUP1 SWAP2 SUB SWAP1 REVERT JUMPDEST PUSH1 0x0 CALLER SWAP1 DUP1 PUSH1 0x1 DUP2 SLOAD ADD DUP1 DUP3 SSTORE DUP1 SWAP2 POP POP PUSH1 0x1 SWAP1 SUB SWAP1 PUSH1 0x0 MSTORE PUSH1 0x20 PUSH1 0x0 KECCAK256 ADD PUSH1 0x0 SWAP1 SWAP2 SWAP1 SWAP2 SWAP1 SWAP2 PUSH2 0x100 EXP DUP2 SLOAD DUP2 PUSH20 0xFFFFFFFFFFFFFFFFFFFFFFFFFFFFFFFFFFFFFFFF MUL NOT AND SWAP1 DUP4 PUSH20 0xFFFFFFFFFFFFFFFFFFFFFFFFFFFFFFFFFFFFFFFF AND MUL OR SWAP1 SSTORE POP CALLER PUSH20 0xFFFFFFFFFFFFFFFFFFFFFFFFFFFFFFFFFFFFFFFF AND PUSH32 0x1E387E9BC77E6BF4C9773912B8BE31AA329AFD7FE0ACFD57F5DADB739DE8765E PUSH1 0x40 MLOAD PUSH1 0x40 MLOAD DUP1 SWAP2 SUB SWAP1 LOG2 JUMP JUMPDEST PUSH1 0x0 DUP1 DUP3 DUP2 SLOAD DUP2 LT PUSH2 0x4B3 JUMPI PUSH2 0x4B2 PUSH2 0xAFF JUMP JUMPDEST JUMPDEST SWAP1 PUSH1 0x0 MSTORE PUSH1 0x20 PUSH1 0x0 KECCAK256 ADD PUSH1 0x0 SWAP1 SLOAD SWAP1 PUSH2 0x100 EXP SWAP1 DIV PUSH20 0xFFFFFFFFFFFFFFFFFFFFFFFFFFFFFFFFFFFFFFFF AND SWAP1 POP SWAP2 SWAP1 POP JUMP JUMPDEST PUSH1 0x0 DUP1 DUP1 SLOAD SWAP1 POP DUP3 PUSH1 0x0 DUP2 MLOAD DUP2 LT PUSH2 0x500 JUMPI PUSH2 0x4FF PUSH2 0xAFF JUMP JUMPDEST JUMPDEST PUSH1 0x20 MUL PUSH1 0x20 ADD ADD MLOAD PUSH2 0x512 SWAP2 SWAP1 PUSH2 0xA9F JUMP JUMPDEST SWAP1 POP PUSH1 0x0 DUP1 DUP3 DUP2 SLOAD DUP2 LT PUSH2 0x529 JUMPI PUSH2 0x528 PUSH2 0xAFF JUMP JUMPDEST JUMPDEST SWAP1 PUSH1 0x0 MSTORE PUSH1 0x20 PUSH1 0x0 KECCAK256 ADD PUSH1 0x0 SWAP1 SLOAD SWAP1 PUSH2 0x100 EXP SWAP1 DIV PUSH20 0xFFFFFFFFFFFFFFFFFFFFFFFFFFFFFFFFFFFFFFFF AND SWAP1 POP DUP1 PUSH1 0x1 PUSH1 0x0 PUSH2 0x100 EXP DUP2 SLOAD DUP2 PUSH20 0xFFFFFFFFFFFFFFFFFFFFFFFFFFFFFFFFFFFFFFFF MUL NOT AND SWAP1 DUP4 PUSH20 0xFFFFFFFFFFFFFFFFFFFFFFFFFFFFFFFFFFFFFFFF AND MUL OR SWAP1 SSTORE POP PUSH1 0x0 DUP2 PUSH20 0xFFFFFFFFFFFFFFFFFFFFFFFFFFFFFFFFFFFFFFFF AND SELFBALANCE PUSH1 0x40 MLOAD PUSH2 0x5BD SWAP1 PUSH2 0x882 JUMP JUMPDEST PUSH1 0x0 PUSH1 0x40 MLOAD DUP1 DUP4 SUB DUP2 DUP6 DUP8 GAS CALL SWAP3 POP POP POP RETURNDATASIZE DUP1 PUSH1 0x0 DUP2 EQ PUSH2 0x5FA JUMPI PUSH1 0x40 MLOAD SWAP2 POP PUSH1 0x1F NOT PUSH1 0x3F RETURNDATASIZE ADD AND DUP3 ADD PUSH1 0x40 MSTORE RETURNDATASIZE DUP3 MSTORE RETURNDATASIZE PUSH1 0x0 PUSH1 0x20 DUP5 ADD RETURNDATACOPY PUSH2 0x5FF JUMP JUMPDEST PUSH1 0x60 SWAP2 POP JUMPDEST POP POP SWAP1 POP DUP1 PUSH2 0x63A JUMPI PUSH1 0x40 MLOAD PUSH32 0x1C94012000000000000000000000000000000000000000000000000000000000 DUP2 MSTORE PUSH1 0x4 ADD PUSH1 0x40 MLOAD DUP1 SWAP2 SUB SWAP1 REVERT JUMPDEST PUSH32 0x97327FD6694D3DF45480784B7731F13ECFFCAE0F296816EEC3DE6F43BF02F728 DUP3 PUSH1 0x40 MLOAD PUSH2 0x669 SWAP2 SWAP1 PUSH2 0x8B2 JUMP JUMPDEST PUSH1 0x40 MLOAD DUP1 SWAP2 SUB SWAP1 LOG1 POP POP POP POP POP JUMP JUMPDEST PUSH1 0x0 PUSH2 0x68B PUSH2 0x686 DUP5 PUSH2 0x989 JUMP JUMPDEST PUSH2 0x964 JUMP JUMPDEST SWAP1 POP DUP1 DUP4 DUP3 MSTORE PUSH1 0x20 DUP3 ADD SWAP1 POP DUP3 DUP6 PUSH1 0x20 DUP7 MUL DUP3 ADD GT ISZERO PUSH2 0x6AE JUMPI PUSH2 0x6AD PUSH2 0xB62 JUMP JUMPDEST JUMPDEST PUSH1 0x0 JUMPDEST DUP6 DUP2 LT ISZERO PUSH2 0x6DE JUMPI DUP2 PUSH2 0x6C4 DUP9 DUP3 PUSH2 0x716 JUMP JUMPDEST DUP5 MSTORE PUSH1 0x20 DUP5 ADD SWAP4 POP PUSH1 0x20 DUP4 ADD SWAP3 POP POP PUSH1 0x1 DUP2 ADD SWAP1 POP PUSH2 0x6B1 JUMP JUMPDEST POP POP POP SWAP4 SWAP3 POP POP POP JUMP JUMPDEST PUSH1 0x0 DUP3 PUSH1 0x1F DUP4 ADD SLT PUSH2 0x6FD JUMPI PUSH2 0x6FC PUSH2 0xB5D JUMP JUMPDEST JUMPDEST DUP2 CALLDATALOAD PUSH2 0x70D DUP5 DUP3 PUSH1 0x20 DUP7 ADD PUSH2 0x678 JUMP JUMPDEST SWAP2 POP POP SWAP3 SWAP2 POP POP JUMP JUMPDEST PUSH1 0x0 DUP2 CALLDATALOAD SWAP1 POP PUSH2 0x725 DUP2 PUSH2 0xB85 JUMP JUMPDEST SWAP3 SWAP2 POP POP JUMP JUMPDEST PUSH1 0x0 DUP2 MLOAD SWAP1 POP PUSH2 0x73A DUP2 PUSH2 0xB85 JUMP JUMPDEST SWAP3 SWAP2 POP POP JUMP JUMPDEST PUSH1 0x0 PUSH1 0x20 DUP3 DUP5 SUB SLT ISZERO PUSH2 0x756 JUMPI PUSH2 0x755 PUSH2 0xB6C JUMP JUMPDEST JUMPDEST PUSH1 0x0 PUSH2 0x764 DUP5 DUP3 DUP6 ADD PUSH2 0x716 JUMP JUMPDEST SWAP2 POP POP SWAP3 SWAP2 POP POP JUMP JUMPDEST PUSH1 0x0 PUSH1 0x20 DUP3 DUP5 SUB SLT ISZERO PUSH2 0x783 JUMPI PUSH2 0x782 PUSH2 0xB6C JUMP JUMPDEST JUMPDEST PUSH1 0x0 PUSH2 0x791 DUP5 DUP3 DUP6 ADD PUSH2 0x72B JUMP JUMPDEST SWAP2 POP POP SWAP3 SWAP2 POP POP JUMP JUMPDEST PUSH1 0x0 DUP1 PUSH1 0x40 DUP4 DUP6 SUB SLT ISZERO PUSH2 0x7B1 JUMPI PUSH2 0x7B0 PUSH2 0xB6C JUMP JUMPDEST JUMPDEST PUSH1 0x0 PUSH2 0x7BF DUP6 DUP3 DUP7 ADD PUSH2 0x716 JUMP JUMPDEST SWAP3 POP POP PUSH1 0x20 DUP4 ADD CALLDATALOAD PUSH8 0xFFFFFFFFFFFFFFFF DUP2 GT ISZERO PUSH2 0x7E0 JUMPI PUSH2 0x7DF PUSH2 0xB67 JUMP JUMPDEST JUMPDEST PUSH2 0x7EC DUP6 DUP3 DUP7 ADD PUSH2 0x6E8 JUMP JUMPDEST SWAP2 POP POP SWAP3 POP SWAP3 SWAP1 POP JUMP JUMPDEST PUSH2 0x7FF DUP2 PUSH2 0xA38 JUMP JUMPDEST DUP3 MSTORE POP POP JUMP JUMPDEST PUSH2 0x80E DUP2 PUSH2 0x9C0 JUMP JUMPDEST DUP3 MSTORE POP POP JUMP JUMPDEST PUSH2 0x81D DUP2 PUSH2 0x9D2 JUMP JUMPDEST DUP3 MSTORE POP POP JUMP JUMPDEST PUSH1 0x0 PUSH2 0x830 PUSH1 0x0 DUP4 PUSH2 0x9B5 JUMP JUMPDEST SWAP2 POP PUSH2 0x83B DUP3 PUSH2 0xB82 JUMP JUMPDEST PUSH1 0x0 DUP3 ADD SWAP1 POP SWAP2 SWAP1 POP JUMP JUMPDEST PUSH2 0x84F DUP2 PUSH2 0x9DC JUMP JUMPDEST DUP3 MSTORE POP POP JUMP JUMPDEST PUSH2 0x85E DUP2 PUSH2 0xA0A JUMP JUMPDEST DUP3 MSTORE POP POP JUMP JUMPDEST PUSH2 0x86D DUP2 PUSH2 0xA14 JUMP JUMPDEST DUP3 MSTORE POP POP JUMP JUMPDEST PUSH2 0x87C DUP2 PUSH2 0xA24 JUMP JUMPDEST DUP3 MSTORE POP POP JUMP JUMPDEST PUSH1 0x0 PUSH2 0x88D DUP3 PUSH2 0x823 JUMP JUMPDEST SWAP2 POP DUP2 SWAP1 POP SWAP2 SWAP1 POP JUMP JUMPDEST PUSH1 0x0 PUSH1 0x20 DUP3 ADD SWAP1 POP PUSH2 0x8AC PUSH1 0x0 DUP4 ADD DUP5 PUSH2 0x805 JUMP JUMPDEST SWAP3 SWAP2 POP POP JUMP JUMPDEST PUSH1 0x0 PUSH1 0x20 DUP3 ADD SWAP1 POP PUSH2 0x8C7 PUSH1 0x0 DUP4 ADD DUP5 PUSH2 0x7F6 JUMP JUMPDEST SWAP3 SWAP2 POP POP JUMP JUMPDEST PUSH1 0x0 PUSH1 0x40 DUP3 ADD SWAP1 POP PUSH2 0x8E2 PUSH1 0x0 DUP4 ADD DUP6 PUSH2 0x805 JUMP JUMPDEST PUSH2 0x8EF PUSH1 0x20 DUP4 ADD DUP5 PUSH2 0x805 JUMP JUMPDEST SWAP4 SWAP3 POP POP POP JUMP JUMPDEST PUSH1 0x0 PUSH1 0xA0 DUP3 ADD SWAP1 POP PUSH2 0x90B PUSH1 0x0 DUP4 ADD DUP9 PUSH2 0x814 JUMP JUMPDEST PUSH2 0x918 PUSH1 0x20 DUP4 ADD DUP8 PUSH2 0x873 JUMP JUMPDEST PUSH2 0x925 PUSH1 0x40 DUP4 ADD DUP7 PUSH2 0x846 JUMP JUMPDEST PUSH2 0x932 PUSH1 0x60 DUP4 ADD DUP6 PUSH2 0x864 JUMP JUMPDEST PUSH2 0x93F PUSH1 0x80 DUP4 ADD DUP5 PUSH2 0x864 JUMP JUMPDEST SWAP7 SWAP6 POP POP POP POP POP POP JUMP JUMPDEST PUSH1 0x0 PUSH1 0x20 DUP3 ADD SWAP1 POP PUSH2 0x95E PUSH1 0x0 DUP4 ADD DUP5 PUSH2 0x855 JUMP JUMPDEST SWAP3 SWAP2 POP POP JUMP JUMPDEST PUSH1 0x0 PUSH2 0x96E PUSH2 0x97F JUMP JUMPDEST SWAP1 POP PUSH2 0x97A DUP3 DUP3 PUSH2 0xA6E JUMP JUMPDEST SWAP2 SWAP1 POP JUMP JUMPDEST PUSH1 0x0 PUSH1 0x40 MLOAD SWAP1 POP SWAP1 JUMP JUMPDEST PUSH1 0x0 PUSH8 0xFFFFFFFFFFFFFFFF DUP3 GT ISZERO PUSH2 0x9A4 JUMPI PUSH2 0x9A3 PUSH2 0xB2E JUMP JUMPDEST JUMPDEST PUSH1 0x20 DUP3 MUL SWAP1 POP PUSH1 0x20 DUP2 ADD SWAP1 POP SWAP2 SWAP1 POP JUMP JUMPDEST PUSH1 0x0 DUP2 SWAP1 POP SWAP3 SWAP2 POP POP JUMP JUMPDEST PUSH1 0x0 PUSH2 0x9CB DUP3 PUSH2 0x9EA JUMP JUMPDEST SWAP1 POP SWAP2 SWAP1 POP JUMP JUMPDEST PUSH1 0x0 DUP2 SWAP1 POP SWAP2 SWAP1 POP JUMP JUMPDEST PUSH1 0x0 PUSH2 0xFFFF DUP3 AND SWAP1 POP SWAP2 SWAP1 POP JUMP JUMPDEST PUSH1 0x0 PUSH20 0xFFFFFFFFFFFFFFFFFFFFFFFFFFFFFFFFFFFFFFFF DUP3 AND SWAP1 POP SWAP2 SWAP1 POP JUMP JUMPDEST PUSH1 0x0 DUP2 SWAP1 POP SWAP2 SWAP1 POP JUMP JUMPDEST PUSH1 0x0 PUSH4 0xFFFFFFFF DUP3 AND SWAP1 POP SWAP2 SWAP1 POP JUMP JUMPDEST PUSH1 0x0 PUSH8 0xFFFFFFFFFFFFFFFF DUP3 AND SWAP1 POP SWAP2 SWAP1 POP JUMP JUMPDEST PUSH1 0x0 PUSH2 0xA43 DUP3 PUSH2 0xA4A JUMP JUMPDEST SWAP1 POP SWAP2 SWAP1 POP JUMP JUMPDEST PUSH1 0x0 PUSH2 0xA55 DUP3 PUSH2 0xA5C JUMP JUMPDEST SWAP1 POP SWAP2 SWAP1 POP JUMP JUMPDEST PUSH1 0x0 PUSH2 0xA67 DUP3 PUSH2 0x9EA JUMP JUMPDEST SWAP1 POP SWAP2 SWAP1 POP JUMP JUMPDEST PUSH2 0xA77 DUP3 PUSH2 0xB71 JUMP JUMPDEST DUP2 ADD DUP2 DUP2 LT PUSH8 0xFFFFFFFFFFFFFFFF DUP3 GT OR ISZERO PUSH2 0xA96 JUMPI PUSH2 0xA95 PUSH2 0xB2E JUMP JUMPDEST JUMPDEST DUP1 PUSH1 0x40 MSTORE POP POP POP JUMP JUMPDEST PUSH1 0x0 PUSH2 0xAAA DUP3 PUSH2 0xA0A JUMP JUMPDEST SWAP2 POP PUSH2 0xAB5 DUP4 PUSH2 0xA0A JUMP JUMPDEST SWAP3 POP DUP3 PUSH2 0xAC5 JUMPI PUSH2 0xAC4 PUSH2 0xAD0 JUMP JUMPDEST JUMPDEST DUP3 DUP3 MOD SWAP1 POP SWAP3 SWAP2 POP POP JUMP JUMPDEST PUSH32 0x4E487B7100000000000000000000000000000000000000000000000000000000 PUSH1 0x0 MSTORE PUSH1 0x12 PUSH1 0x4 MSTORE PUSH1 0x24 PUSH1 0x0 REVERT JUMPDEST PUSH32 0x4E487B7100000000000000000000000000000000000000000000000000000000 PUSH1 0x0 MSTORE PUSH1 0x32 PUSH1 0x4 MSTORE PUSH1 0x24 PUSH1 0x0 REVERT JUMPDEST PUSH32 0x4E487B7100000000000000000000000000000000000000000000000000000000 PUSH1 0x0 MSTORE PUSH1 0x41 PUSH1 0x4 MSTORE PUSH1 0x24 PUSH1 0x0 REVERT JUMPDEST PUSH1 0x0 DUP1 REVERT JUMPDEST PUSH1 0x0 DUP1 REVERT JUMPDEST PUSH1 0x0 DUP1 REVERT JUMPDEST PUSH1 0x0 DUP1 REVERT JUMPDEST PUSH1 0x0 PUSH1 0x1F NOT PUSH1 0x1F DUP4 ADD AND SWAP1 POP SWAP2 SWAP1 POP JUMP JUMPDEST POP JUMP JUMPDEST PUSH2 0xB8E DUP2 PUSH2 0xA0A JUMP JUMPDEST DUP2 EQ PUSH2 0xB99 JUMPI PUSH1 0x0 DUP1 REVERT JUMPDEST POP JUMP INVALID LOG2 PUSH5 0x6970667358 0x22 SLT KECCAK256 MULMOD PUSH10 0x15F65DD3C6699AC1DD6 ADD LOG2 PUSH30 0xF90FA937AAA101A457ED733939180CE18264736F6C634300080700330000 "
        },
        "gasEstimates": {
          "creation": {
            "codeDepositCost": "605200",
            "executionCost": "infinite",
            "totalCost": "infinite"
          },
          "external": {
            "fundLottery()": "infinite",
            "getEthAmount()": "infinite",
            "getPlayer(uint256)": "5055",
            "getRecentWinner()": "2544",
            "rawFulfillRandomWords(uint256,uint256[])": "infinite",
            "requestRandomWinner()": "infinite"
          },
          "internal": {
            "fulfillRandomWords(uint256,uint256[] memory)": "infinite"
          }
        },
        "methodIdentifiers": {
          "fundLottery()": "b5cc4539",
          "getEthAmount()": "087d01df",
          "getPlayer(uint256)": "e55ae4e8",
          "getRecentWinner()": "473f1ddc",
          "rawFulfillRandomWords(uint256,uint256[])": "1fe543e3",
          "requestRandomWinner()": "522a1f0b"
        }
      },
      "storageLayout": {
        "storage": [
          {
            "astId": 161,
            "contract": "contracts/Lottery.sol:Lottery",
            "label": "s_players",
            "offset": 0,
            "slot": "0",
            "type": "t_array(t_address_payable)dyn_storage"
          },
          {
            "astId": 178,
            "contract": "contracts/Lottery.sol:Lottery",
            "label": "s_recentWinner",
            "offset": 0,
            "slot": "1",
            "type": "t_address_payable"
          }
        ],
        "types": {
          "t_address_payable": {
            "encoding": "inplace",
            "label": "address payable",
            "numberOfBytes": "20"
          },
          "t_array(t_address_payable)dyn_storage": {
            "base": "t_address_payable",
            "encoding": "dynamic_array",
            "label": "address payable[]",
            "numberOfBytes": "32"
          }
        }
      },
      "userdoc": {
        "kind": "user",
        "methods": {
          "getEthAmount()": {
            "notice": "pure view functions "
          }
        },
        "version": 1
      }
    }
  }
}