{
  "_format": "hh-sol-artifact-1",
  "contractName": "Lottery",
  "sourceName": "contracts/Lottery.sol",
  "abi": [
    {
      "inputs": [
        {
          "internalType": "address",
          "name": "vrfCoordinator",
          "type": "address"
        },
        {
          "internalType": "uint256",
          "name": "ethAmount",
          "type": "uint256"
        },
        {
          "internalType": "bytes32",
          "name": "keyHash",
          "type": "bytes32"
        },
        {
          "internalType": "uint64",
          "name": "subscriptionId",
          "type": "uint64"
        },
        {
          "internalType": "uint32",
          "name": "callbackGasLimit",
          "type": "uint32"
        },
        {
          "internalType": "uint256",
          "name": "interval",
          "type": "uint256"
        }
      ],
      "stateMutability": "nonpayable",
      "type": "constructor"
    },
    {
      "inputs": [],
      "name": "Lottery__EthIsNotEnough",
      "type": "error"
    },
    {
      "inputs": [],
      "name": "Lottery__RaffleStateOpen",
      "type": "error"
    },
    {
      "inputs": [],
      "name": "Lottery__TransferFailed",
      "type": "error"
    },
    {
      "inputs": [
        {
          "internalType": "address",
          "name": "have",
          "type": "address"
        },
        {
          "internalType": "address",
          "name": "want",
          "type": "address"
        }
      ],
      "name": "OnlyCoordinatorCanFulfill",
      "type": "error"
    },
    {
      "inputs": [
        {
          "internalType": "uint256",
          "name": "currentBalance",
          "type": "uint256"
        },
        {
          "internalType": "uint256",
          "name": "numPlayers",
          "type": "uint256"
        },
        {
          "internalType": "uint256",
          "name": "raffleState",
          "type": "uint256"
        }
      ],
      "name": "RaffleState__UpkeepNotNeeded",
      "type": "error"
    },
    {
      "anonymous": false,
      "inputs": [
        {
          "indexed": true,
          "internalType": "address",
          "name": "player",
          "type": "address"
        }
      ],
      "name": "lotteryFund",
      "type": "event"
    },
    {
      "anonymous": false,
      "inputs": [
        {
          "indexed": false,
          "internalType": "uint256",
          "name": "requestId",
          "type": "uint256"
        }
      ],
      "name": "requestedRandomWinner",
      "type": "event"
    },
    {
      "anonymous": false,
      "inputs": [
        {
          "indexed": false,
          "internalType": "address",
          "name": "randomWinner",
          "type": "address"
        }
      ],
      "name": "winnerAddress",
      "type": "event"
    },
    {
      "inputs": [
        {
          "internalType": "bytes",
          "name": "",
          "type": "bytes"
        }
      ],
      "name": "checkUpkeep",
      "outputs": [
        {
          "internalType": "bool",
          "name": "upkeepNeeded",
          "type": "bool"
        },
        {
          "internalType": "bytes",
          "name": "",
          "type": "bytes"
        }
      ],
      "stateMutability": "view",
      "type": "function"
    },
    {
      "inputs": [],
      "name": "fundLottery",
      "outputs": [],
      "stateMutability": "payable",
      "type": "function"
    },
    {
      "inputs": [],
      "name": "getEthAmount",
      "outputs": [
        {
          "internalType": "uint256",
          "name": "",
          "type": "uint256"
        }
      ],
      "stateMutability": "view",
      "type": "function"
    },
    {
      "inputs": [],
      "name": "getInterval",
      "outputs": [
        {
          "internalType": "uint256",
          "name": "",
          "type": "uint256"
        }
      ],
      "stateMutability": "view",
      "type": "function"
    },
    {
      "inputs": [],
      "name": "getLastTimeStamp",
      "outputs": [
        {
          "internalType": "uint256",
          "name": "",
          "type": "uint256"
        }
      ],
      "stateMutability": "view",
      "type": "function"
    },
    {
      "inputs": [],
      "name": "getNumberOfPlayers",
      "outputs": [
        {
          "internalType": "uint256",
          "name": "",
          "type": "uint256"
        }
      ],
      "stateMutability": "view",
      "type": "function"
    },
    {
      "inputs": [
        {
          "internalType": "uint256",
          "name": "index",
          "type": "uint256"
        }
      ],
      "name": "getPlayer",
      "outputs": [
        {
          "internalType": "address",
          "name": "",
          "type": "address"
        }
      ],
      "stateMutability": "view",
      "type": "function"
    },
    {
      "inputs": [],
      "name": "getRaffleState",
      "outputs": [
        {
          "internalType": "enum Lottery.RaffleState",
          "name": "",
          "type": "uint8"
        }
      ],
      "stateMutability": "view",
      "type": "function"
    },
    {
      "inputs": [],
      "name": "getRecentWinner",
      "outputs": [
        {
          "internalType": "address",
          "name": "",
          "type": "address"
        }
      ],
      "stateMutability": "view",
      "type": "function"
    },
    {
      "inputs": [],
      "name": "getVRFCoordinator",
      "outputs": [
        {
          "internalType": "contract VRFCoordinatorV2Interface",
          "name": "",
          "type": "address"
        }
      ],
      "stateMutability": "view",
      "type": "function"
    },
    {
      "inputs": [],
      "name": "getnumWords",
      "outputs": [
        {
          "internalType": "uint256",
          "name": "",
          "type": "uint256"
        }
      ],
      "stateMutability": "pure",
      "type": "function"
    },
    {
      "inputs": [
        {
          "internalType": "bytes",
          "name": "",
          "type": "bytes"
        }
      ],
      "name": "performUpkeep",
      "outputs": [],
      "stateMutability": "nonpayable",
      "type": "function"
    },
    {
      "inputs": [
        {
          "internalType": "uint256",
          "name": "requestId",
          "type": "uint256"
        },
        {
          "internalType": "uint256[]",
          "name": "randomWords",
          "type": "uint256[]"
        }
      ],
      "name": "rawFulfillRandomWords",
      "outputs": [],
      "stateMutability": "nonpayable",
      "type": "function"
    }
  ],
  "bytecode": "0x6101606040523480156200001257600080fd5b50604051620018f4380380620018f48339818101604052810190620000389190620001ad565b858073ffffffffffffffffffffffffffffffffffffffff1660808173ffffffffffffffffffffffffffffffffffffffff1660601b81525050508460a081815250508573ffffffffffffffffffffffffffffffffffffffff1660c08173ffffffffffffffffffffffffffffffffffffffff1660601b815250508360e081815250508267ffffffffffffffff166101008167ffffffffffffffff1660c01b815250508163ffffffff166101208163ffffffff1660e01b815250506000600160146101000a81548160ff02191690836001811115620001195762000118620002b5565b5b0217905550426002819055508061014081815250505050505050506200036b565b6000815190506200014b81620002e9565b92915050565b600081519050620001628162000303565b92915050565b60008151905062000179816200031d565b92915050565b600081519050620001908162000337565b92915050565b600081519050620001a78162000351565b92915050565b60008060008060008060c08789031215620001cd57620001cc620002e4565b5b6000620001dd89828a016200013a565b9650506020620001f089828a0162000168565b95505060406200020389828a0162000151565b94505060606200021689828a0162000196565b93505060806200022989828a016200017f565b92505060a06200023c89828a0162000168565b9150509295509295509295565b6000620002568262000267565b9050919050565b6000819050919050565b600073ffffffffffffffffffffffffffffffffffffffff82169050919050565b6000819050919050565b600063ffffffff82169050919050565b600067ffffffffffffffff82169050919050565b7f4e487b7100000000000000000000000000000000000000000000000000000000600052602160045260246000fd5b600080fd5b620002f48162000249565b81146200030057600080fd5b50565b6200030e816200025d565b81146200031a57600080fd5b50565b620003288162000287565b81146200033457600080fd5b50565b620003428162000291565b81146200034e57600080fd5b50565b6200035c81620002a1565b81146200036857600080fd5b50565b60805160601c60a05160c05160601c60e0516101005160c01c6101205160e01c61014051611506620003ee6000396000818161068c01526106e701526000610502015260006104df015260006104be015260008181610482015261070f0152600081816102fa0152610735015260008181610337015261038b01526115066000f3fe6080604052600436106100c25760003560e01c80636e04ff0d1161007f578063b5cc453911610059578063b5cc453914610259578063c1c244e814610263578063e55ae4e81461028e578063fd6673f5146102cb576100c2565b80636e04ff0d146101c557806391ad27b414610203578063a378f3711461022e576100c2565b8063087d01df146100c7578063115cbaf5146100f25780631fe543e31461011d5780634585e33b14610146578063473f1ddc1461016f57806367f483661461019a575b600080fd5b3480156100d357600080fd5b506100dc6102f6565b6040516100e991906110c4565b60405180910390f35b3480156100fe57600080fd5b5061010761031e565b60405161011491906110a9565b60405180910390f35b34801561012957600080fd5b50610144600480360381019061013f9190610e49565b610335565b005b34801561015257600080fd5b5061016d60048036038101906101689190610d59565b6103f5565b005b34801561017b57600080fd5b506101846105fe565b6040516101919190610fac565b60405180910390f35b3480156101a657600080fd5b506101af610628565b6040516101bc91906110c4565b60405180910390f35b3480156101d157600080fd5b506101ec60048036038101906101e79190610da6565b610637565b6040516101fa92919061100b565b60405180910390f35b34801561020f57600080fd5b506102186106e3565b60405161022591906110c4565b60405180910390f35b34801561023a57600080fd5b5061024361070b565b604051610250919061108e565b60405180910390f35b610261610733565b005b34801561026f57600080fd5b506102786108a2565b60405161028591906110c4565b60405180910390f35b34801561029a57600080fd5b506102b560048036038101906102b09190610def565b6108ac565b6040516102c29190610fac565b60405180910390f35b3480156102d757600080fd5b506102e06108f3565b6040516102ed91906110c4565b60405180910390f35b60007f0000000000000000000000000000000000000000000000000000000000000000905090565b6000600160149054906101000a900460ff16905090565b7f000000000000000000000000000000000000000000000000000000000000000073ffffffffffffffffffffffffffffffffffffffff163373ffffffffffffffffffffffffffffffffffffffff16146103e757337f00000000000000000000000000000000000000000000000000000000000000006040517f1cf993f40000000000000000000000000000000000000000000000000000000081526004016103de929190610fe2565b60405180910390fd5b6103f182826108ff565b5050565b600061040f60405180602001604052806000815250610637565b5090508061047e5747600080549050600160149054906101000a900460ff1660018111156104405761043f6113e6565b5b6040517f3a22ecac000000000000000000000000000000000000000000000000000000008152600401610475939291906110df565b60405180910390fd5b60007f000000000000000000000000000000000000000000000000000000000000000073ffffffffffffffffffffffffffffffffffffffff16635d3b1d307f00000000000000000000000000000000000000000000000000000000000000007f000000000000000000000000000000000000000000000000000000000000000060037f000000000000000000000000000000000000000000000000000000000000000060016040518663ffffffff1660e01b815260040161054395949392919061103b565b602060405180830381600087803b15801561055d57600080fd5b505af1158015610571573d6000803e3d6000fd5b505050506040513d601f19601f820116820180604052508101906105959190610e1c565b905060018060146101000a81548160ff021916908360018111156105bc576105bb6113e6565b5b02179055507fdd178cd66913b03cc6ff7831dcbaab26c0ba151b22ace716e22f93551917c87c816040516105f091906110c4565b60405180910390a150505050565b6000600160009054906101000a900473ffffffffffffffffffffffffffffffffffffffff16905090565b6000600163ffffffff16905090565b6000606060008060018111156106505761064f6113e6565b5b600160149054906101000a900460ff166001811115610672576106716113e6565b5b1490506000806000805490501190506000804711905060007f0000000000000000000000000000000000000000000000000000000000000000600254426106b991906111bf565b1190508380156106c65750825b80156106cf5750815b80156106d85750805b955050505050915091565b60007f0000000000000000000000000000000000000000000000000000000000000000905090565b60007f0000000000000000000000000000000000000000000000000000000000000000905090565b7f000000000000000000000000000000000000000000000000000000000000000034101561078d576040517f6bcdbf0200000000000000000000000000000000000000000000000000000000815260040160405180910390fd5b600060018111156107a1576107a06113e6565b5b600160149054906101000a900460ff1660018111156107c3576107c26113e6565b5b146107fa576040517f7197a89000000000000000000000000000000000000000000000000000000000815260040160405180910390fd5b6000339080600181540180825580915050600190039060005260206000200160009091909190916101000a81548173ffffffffffffffffffffffffffffffffffffffff021916908373ffffffffffffffffffffffffffffffffffffffff1602179055503373ffffffffffffffffffffffffffffffffffffffff167f1e387e9bc77e6bf4c9773912b8be31aa329afd7fe0acfd57f5dadb739de8765e60405160405180910390a2565b6000600254905090565b60008082815481106108c1576108c0611415565b5b9060005260206000200160009054906101000a900473ffffffffffffffffffffffffffffffffffffffff169050919050565b60008080549050905090565b600080805490508260008151811061091a57610919611415565b5b602002602001015161092c9190611357565b9050600080828154811061094357610942611415565b5b9060005260206000200160009054906101000a900473ffffffffffffffffffffffffffffffffffffffff16905080600160006101000a81548173ffffffffffffffffffffffffffffffffffffffff021916908373ffffffffffffffffffffffffffffffffffffffff1602179055506000600160146101000a81548160ff021916908360018111156109d7576109d66113e6565b5b0217905550600067ffffffffffffffff8111156109f7576109f6611444565b5b604051908082528060200260200182016040528015610a255781602001602082028036833780820191505090505b5060009080519060200190610a3b929190610b24565b504260028190555060008173ffffffffffffffffffffffffffffffffffffffff1647604051610a6990610f97565b60006040518083038185875af1925050503d8060008114610aa6576040519150601f19603f3d011682016040523d82523d6000602084013e610aab565b606091505b5050905080610ae6576040517f1c94012000000000000000000000000000000000000000000000000000000000815260040160405180910390fd5b7f97327fd6694d3df45480784b7731f13ecffcae0f296816eec3de6f43bf02f72882604051610b159190610fc7565b60405180910390a15050505050565b828054828255906000526020600020908101928215610b9d579160200282015b82811115610b9c5782518260006101000a81548173ffffffffffffffffffffffffffffffffffffffff021916908373ffffffffffffffffffffffffffffffffffffffff16021790555091602001919060010190610b44565b5b509050610baa9190610bae565b5090565b5b80821115610bc7576000816000905550600101610baf565b5090565b6000610bde610bd98461113b565b611116565b90508083825260208201905082856020860282011115610c0157610c0061147d565b5b60005b85811015610c315781610c178882610d2f565b845260208401935060208301925050600181019050610c04565b5050509392505050565b6000610c4e610c4984611167565b611116565b905082815260208101848484011115610c6a57610c69611482565b5b610c758482856112e4565b509392505050565b600082601f830112610c9257610c91611478565b5b8135610ca2848260208601610bcb565b91505092915050565b60008083601f840112610cc157610cc0611478565b5b8235905067ffffffffffffffff811115610cde57610cdd611473565b5b602083019150836001820283011115610cfa57610cf961147d565b5b9250929050565b600082601f830112610d1657610d15611478565b5b8135610d26848260208601610c3b565b91505092915050565b600081359050610d3e816114b9565b92915050565b600081519050610d53816114b9565b92915050565b60008060208385031215610d7057610d6f61148c565b5b600083013567ffffffffffffffff811115610d8e57610d8d611487565b5b610d9a85828601610cab565b92509250509250929050565b600060208284031215610dbc57610dbb61148c565b5b600082013567ffffffffffffffff811115610dda57610dd9611487565b5b610de684828501610d01565b91505092915050565b600060208284031215610e0557610e0461148c565b5b6000610e1384828501610d2f565b91505092915050565b600060208284031215610e3257610e3161148c565b5b6000610e4084828501610d44565b91505092915050565b60008060408385031215610e6057610e5f61148c565b5b6000610e6e85828601610d2f565b925050602083013567ffffffffffffffff811115610e8f57610e8e611487565b5b610e9b85828601610c7d565b9150509250929050565b610eae8161128a565b82525050565b610ebd816111f3565b82525050565b610ecc81611205565b82525050565b610edb81611211565b82525050565b6000610eec82611198565b610ef681856111a3565b9350610f068185602086016112f3565b610f0f81611491565b840191505092915050565b610f238161129c565b82525050565b610f32816112ae565b82525050565b6000610f456000836111b4565b9150610f50826114a2565b600082019050919050565b610f648161122e565b82525050565b610f738161125c565b82525050565b610f8281611266565b82525050565b610f9181611276565b82525050565b6000610fa282610f38565b9150819050919050565b6000602082019050610fc16000830184610eb4565b92915050565b6000602082019050610fdc6000830184610ea5565b92915050565b6000604082019050610ff76000830185610eb4565b6110046020830184610eb4565b9392505050565b60006040820190506110206000830185610ec3565b81810360208301526110328184610ee1565b90509392505050565b600060a0820190506110506000830188610ed2565b61105d6020830187610f88565b61106a6040830186610f5b565b6110776060830185610f79565b6110846080830184610f79565b9695505050505050565b60006020820190506110a36000830184610f1a565b92915050565b60006020820190506110be6000830184610f29565b92915050565b60006020820190506110d96000830184610f6a565b92915050565b60006060820190506110f46000830186610f6a565b6111016020830185610f6a565b61110e6040830184610f6a565b949350505050565b6000611120611131565b905061112c8282611326565b919050565b6000604051905090565b600067ffffffffffffffff82111561115657611155611444565b5b602082029050602081019050919050565b600067ffffffffffffffff82111561118257611181611444565b5b61118b82611491565b9050602081019050919050565b600081519050919050565b600082825260208201905092915050565b600081905092915050565b60006111ca8261125c565b91506111d58361125c565b9250828210156111e8576111e7611388565b5b828203905092915050565b60006111fe8261123c565b9050919050565b60008115159050919050565b6000819050919050565b6000819050611229826114a5565b919050565b600061ffff82169050919050565b600073ffffffffffffffffffffffffffffffffffffffff82169050919050565b6000819050919050565b600063ffffffff82169050919050565b600067ffffffffffffffff82169050919050565b6000611295826112c0565b9050919050565b60006112a7826112c0565b9050919050565b60006112b98261121b565b9050919050565b60006112cb826112d2565b9050919050565b60006112dd8261123c565b9050919050565b82818337600083830152505050565b60005b838110156113115780820151818401526020810190506112f6565b83811115611320576000848401525b50505050565b61132f82611491565b810181811067ffffffffffffffff8211171561134e5761134d611444565b5b80604052505050565b60006113628261125c565b915061136d8361125c565b92508261137d5761137c6113b7565b5b828206905092915050565b7f4e487b7100000000000000000000000000000000000000000000000000000000600052601160045260246000fd5b7f4e487b7100000000000000000000000000000000000000000000000000000000600052601260045260246000fd5b7f4e487b7100000000000000000000000000000000000000000000000000000000600052602160045260246000fd5b7f4e487b7100000000000000000000000000000000000000000000000000000000600052603260045260246000fd5b7f4e487b7100000000000000000000000000000000000000000000000000000000600052604160045260246000fd5b600080fd5b600080fd5b600080fd5b600080fd5b600080fd5b600080fd5b6000601f19601f8301169050919050565b50565b600281106114b6576114b56113e6565b5b50565b6114c28161125c565b81146114cd57600080fd5b5056fea264697066735822122040857eb3d1e30fef7d16b553861804989b31443ed4c2e26a0b6672b33047582864736f6c63430008070033",
  "linkReferences": {},
  "deployedLinkReferences": {}
}