{
  "_format": "hh-sol-artifact-1",
  "contractName": "Lottery",
  "sourceName": "contracts/Lottery.sol",
  "abi": [
    {
      "inputs": [
        {
          "internalType": "address",
          "name": "vrfCoordinator",
          "type": "address"
        },
        {
          "internalType": "uint256",
          "name": "ethAmount",
          "type": "uint256"
        },
        {
          "internalType": "bytes32",
          "name": "keyHash",
          "type": "bytes32"
        },
        {
          "internalType": "uint64",
          "name": "subscriptionId",
          "type": "uint64"
        },
        {
          "internalType": "uint32",
          "name": "callbackGasLimit",
          "type": "uint32"
        },
        {
          "internalType": "uint256",
          "name": "interval",
          "type": "uint256"
        }
      ],
      "stateMutability": "nonpayable",
      "type": "constructor"
    },
    {
      "inputs": [],
      "name": "Lottery__EthIsNotEnough",
      "type": "error"
    },
    {
      "inputs": [],
      "name": "Lottery__RaffleStateOpen",
      "type": "error"
    },
    {
      "inputs": [],
      "name": "Lottery__TransferFailed",
      "type": "error"
    },
    {
      "inputs": [
        {
          "internalType": "address",
          "name": "have",
          "type": "address"
        },
        {
          "internalType": "address",
          "name": "want",
          "type": "address"
        }
      ],
      "name": "OnlyCoordinatorCanFulfill",
      "type": "error"
    },
    {
      "inputs": [
        {
          "internalType": "uint256",
          "name": "currentBalance",
          "type": "uint256"
        },
        {
          "internalType": "uint256",
          "name": "numPlayers",
          "type": "uint256"
        },
        {
          "internalType": "uint256",
          "name": "raffleState",
          "type": "uint256"
        }
      ],
      "name": "RaffleState__UpkeepNotNeeded",
      "type": "error"
    },
    {
      "anonymous": false,
      "inputs": [
        {
          "indexed": true,
          "internalType": "address",
          "name": "player",
          "type": "address"
        }
      ],
      "name": "lotteryFund",
      "type": "event"
    },
    {
      "anonymous": false,
      "inputs": [
        {
          "indexed": false,
          "internalType": "uint256",
          "name": "requestId",
          "type": "uint256"
        }
      ],
      "name": "requestedRandomWinner",
      "type": "event"
    },
    {
      "anonymous": false,
      "inputs": [
        {
          "indexed": false,
          "internalType": "address",
          "name": "randomWinner",
          "type": "address"
        }
      ],
      "name": "winnerAddress",
      "type": "event"
    },
    {
      "inputs": [
        {
          "internalType": "bytes",
          "name": "",
          "type": "bytes"
        }
      ],
      "name": "checkUpkeep",
      "outputs": [
        {
          "internalType": "bool",
          "name": "upkeepNeeded",
          "type": "bool"
        },
        {
          "internalType": "bytes",
          "name": "",
          "type": "bytes"
        }
      ],
      "stateMutability": "view",
      "type": "function"
    },
    {
      "inputs": [],
      "name": "fundLottery",
      "outputs": [],
      "stateMutability": "payable",
      "type": "function"
    },
    {
      "inputs": [],
      "name": "getEthAmount",
      "outputs": [
        {
          "internalType": "uint256",
          "name": "",
          "type": "uint256"
        }
      ],
      "stateMutability": "view",
      "type": "function"
    },
    {
      "inputs": [],
      "name": "getInterval",
      "outputs": [
        {
          "internalType": "uint256",
          "name": "",
          "type": "uint256"
        }
      ],
      "stateMutability": "view",
      "type": "function"
    },
    {
      "inputs": [],
      "name": "getLastTimeStamp",
      "outputs": [
        {
          "internalType": "uint256",
          "name": "",
          "type": "uint256"
        }
      ],
      "stateMutability": "view",
      "type": "function"
    },
    {
      "inputs": [],
      "name": "getNumberOfPlayers",
      "outputs": [
        {
          "internalType": "uint256",
          "name": "",
          "type": "uint256"
        }
      ],
      "stateMutability": "view",
      "type": "function"
    },
    {
      "inputs": [
        {
          "internalType": "uint256",
          "name": "index",
          "type": "uint256"
        }
      ],
      "name": "getPlayer",
      "outputs": [
        {
          "internalType": "address",
          "name": "",
          "type": "address"
        }
      ],
      "stateMutability": "view",
      "type": "function"
    },
    {
      "inputs": [],
      "name": "getRaffleState",
      "outputs": [
        {
          "internalType": "enum Lottery.RaffleState",
          "name": "",
          "type": "uint8"
        }
      ],
      "stateMutability": "view",
      "type": "function"
    },
    {
      "inputs": [],
      "name": "getRecentWinner",
      "outputs": [
        {
          "internalType": "address",
          "name": "",
          "type": "address"
        }
      ],
      "stateMutability": "view",
      "type": "function"
    },
    {
      "inputs": [],
      "name": "getnumWords",
      "outputs": [
        {
          "internalType": "uint256",
          "name": "",
          "type": "uint256"
        }
      ],
      "stateMutability": "pure",
      "type": "function"
    },
    {
      "inputs": [
        {
          "internalType": "bytes",
          "name": "",
          "type": "bytes"
        }
      ],
      "name": "performUpkeep",
      "outputs": [],
      "stateMutability": "nonpayable",
      "type": "function"
    },
    {
      "inputs": [
        {
          "internalType": "uint256",
          "name": "requestId",
          "type": "uint256"
        },
        {
          "internalType": "uint256[]",
          "name": "randomWords",
          "type": "uint256[]"
        }
      ],
      "name": "rawFulfillRandomWords",
      "outputs": [],
      "stateMutability": "nonpayable",
      "type": "function"
    }
  ],
  "bytecode": "0x6101606040523480156200001257600080fd5b5060405162001843380380620018438339818101604052810190620000389190620001ad565b858073ffffffffffffffffffffffffffffffffffffffff1660808173ffffffffffffffffffffffffffffffffffffffff1660601b81525050508460a081815250508573ffffffffffffffffffffffffffffffffffffffff1660c08173ffffffffffffffffffffffffffffffffffffffff1660601b815250508360e081815250508267ffffffffffffffff166101008167ffffffffffffffff1660c01b815250508163ffffffff166101208163ffffffff1660e01b815250506000600160146101000a81548160ff02191690836001811115620001195762000118620002b5565b5b0217905550426002819055508061014081815250505050505050506200036b565b6000815190506200014b81620002e9565b92915050565b600081519050620001628162000303565b92915050565b60008151905062000179816200031d565b92915050565b600081519050620001908162000337565b92915050565b600081519050620001a78162000351565b92915050565b60008060008060008060c08789031215620001cd57620001cc620002e4565b5b6000620001dd89828a016200013a565b9650506020620001f089828a0162000168565b95505060406200020389828a0162000151565b94505060606200021689828a0162000196565b93505060806200022989828a016200017f565b92505060a06200023c89828a0162000168565b9150509295509295509295565b6000620002568262000267565b9050919050565b6000819050919050565b600073ffffffffffffffffffffffffffffffffffffffff82169050919050565b6000819050919050565b600063ffffffff82169050919050565b600067ffffffffffffffff82169050919050565b7f4e487b7100000000000000000000000000000000000000000000000000000000600052602160045260246000fd5b600080fd5b620002f48162000249565b81146200030057600080fd5b50565b6200030e816200025d565b81146200031a57600080fd5b50565b620003288162000287565b81146200033457600080fd5b50565b620003428162000291565b81146200034e57600080fd5b50565b6200035c81620002a1565b81146200036857600080fd5b50565b60805160601c60a05160c05160601c60e0516101005160c01c6101205160e01c6101405161145c620003e76000396000818161064601526106a1015260006104bc01526000610499015260006104780152600061043c0152600081816102b401526106c70152600081816102f10152610345015261145c6000f3fe6080604052600436106100a75760003560e01c80636e04ff0d116100645780636e04ff0d146101aa57806391ad27b4146101e8578063b5cc453914610213578063c1c244e81461021d578063e55ae4e814610248578063fd6673f514610285576100a7565b8063087d01df146100ac578063115cbaf5146100d75780631fe543e3146101025780634585e33b1461012b578063473f1ddc1461015457806367f483661461017f575b600080fd5b3480156100b857600080fd5b506100c16102b0565b6040516100ce919061102c565b60405180910390f35b3480156100e357600080fd5b506100ec6102d8565b6040516100f99190611011565b60405180910390f35b34801561010e57600080fd5b5061012960048036038101906101249190610ddb565b6102ef565b005b34801561013757600080fd5b50610152600480360381019061014d9190610ceb565b6103af565b005b34801561016057600080fd5b506101696105b8565b6040516101769190610f2f565b60405180910390f35b34801561018b57600080fd5b506101946105e2565b6040516101a1919061102c565b60405180910390f35b3480156101b657600080fd5b506101d160048036038101906101cc9190610d38565b6105f1565b6040516101df929190610f8e565b60405180910390f35b3480156101f457600080fd5b506101fd61069d565b60405161020a919061102c565b60405180910390f35b61021b6106c5565b005b34801561022957600080fd5b50610232610834565b60405161023f919061102c565b60405180910390f35b34801561025457600080fd5b5061026f600480360381019061026a9190610d81565b61083e565b60405161027c9190610f2f565b60405180910390f35b34801561029157600080fd5b5061029a610885565b6040516102a7919061102c565b60405180910390f35b60007f0000000000000000000000000000000000000000000000000000000000000000905090565b6000600160149054906101000a900460ff16905090565b7f000000000000000000000000000000000000000000000000000000000000000073ffffffffffffffffffffffffffffffffffffffff163373ffffffffffffffffffffffffffffffffffffffff16146103a157337f00000000000000000000000000000000000000000000000000000000000000006040517f1cf993f4000000000000000000000000000000000000000000000000000000008152600401610398929190610f65565b60405180910390fd5b6103ab8282610891565b5050565b60006103c9604051806020016040528060008152506105f1565b509050806104385747600080549050600160149054906101000a900460ff1660018111156103fa576103f961133c565b5b6040517f3a22ecac00000000000000000000000000000000000000000000000000000000815260040161042f93929190611047565b60405180910390fd5b60007f000000000000000000000000000000000000000000000000000000000000000073ffffffffffffffffffffffffffffffffffffffff16635d3b1d307f00000000000000000000000000000000000000000000000000000000000000007f000000000000000000000000000000000000000000000000000000000000000060037f000000000000000000000000000000000000000000000000000000000000000060016040518663ffffffff1660e01b81526004016104fd959493929190610fbe565b602060405180830381600087803b15801561051757600080fd5b505af115801561052b573d6000803e3d6000fd5b505050506040513d601f19601f8201168201806040525081019061054f9190610dae565b905060018060146101000a81548160ff021916908360018111156105765761057561133c565b5b02179055507fdd178cd66913b03cc6ff7831dcbaab26c0ba151b22ace716e22f93551917c87c816040516105aa919061102c565b60405180910390a150505050565b6000600160009054906101000a900473ffffffffffffffffffffffffffffffffffffffff16905090565b6000600163ffffffff16905090565b60006060600080600181111561060a5761060961133c565b5b600160149054906101000a900460ff16600181111561062c5761062b61133c565b5b1490506000806000805490501190506000804711905060007f0000000000000000000000000000000000000000000000000000000000000000600254426106739190611127565b1190508380156106805750825b80156106895750815b80156106925750805b955050505050915091565b60007f0000000000000000000000000000000000000000000000000000000000000000905090565b7f000000000000000000000000000000000000000000000000000000000000000034101561071f576040517f6bcdbf0200000000000000000000000000000000000000000000000000000000815260040160405180910390fd5b600060018111156107335761073261133c565b5b600160149054906101000a900460ff1660018111156107555761075461133c565b5b1461078c576040517f7197a89000000000000000000000000000000000000000000000000000000000815260040160405180910390fd5b6000339080600181540180825580915050600190039060005260206000200160009091909190916101000a81548173ffffffffffffffffffffffffffffffffffffffff021916908373ffffffffffffffffffffffffffffffffffffffff1602179055503373ffffffffffffffffffffffffffffffffffffffff167f1e387e9bc77e6bf4c9773912b8be31aa329afd7fe0acfd57f5dadb739de8765e60405160405180910390a2565b6000600254905090565b60008082815481106108535761085261136b565b5b9060005260206000200160009054906101000a900473ffffffffffffffffffffffffffffffffffffffff169050919050565b60008080549050905090565b60008080549050826000815181106108ac576108ab61136b565b5b60200260200101516108be91906112ad565b905060008082815481106108d5576108d461136b565b5b9060005260206000200160009054906101000a900473ffffffffffffffffffffffffffffffffffffffff16905080600160006101000a81548173ffffffffffffffffffffffffffffffffffffffff021916908373ffffffffffffffffffffffffffffffffffffffff1602179055506000600160146101000a81548160ff021916908360018111156109695761096861133c565b5b0217905550600067ffffffffffffffff8111156109895761098861139a565b5b6040519080825280602002602001820160405280156109b75781602001602082028036833780820191505090505b50600090805190602001906109cd929190610ab6565b504260028190555060008173ffffffffffffffffffffffffffffffffffffffff16476040516109fb90610f1a565b60006040518083038185875af1925050503d8060008114610a38576040519150601f19603f3d011682016040523d82523d6000602084013e610a3d565b606091505b5050905080610a78576040517f1c94012000000000000000000000000000000000000000000000000000000000815260040160405180910390fd5b7f97327fd6694d3df45480784b7731f13ecffcae0f296816eec3de6f43bf02f72882604051610aa79190610f4a565b60405180910390a15050505050565b828054828255906000526020600020908101928215610b2f579160200282015b82811115610b2e5782518260006101000a81548173ffffffffffffffffffffffffffffffffffffffff021916908373ffffffffffffffffffffffffffffffffffffffff16021790555091602001919060010190610ad6565b5b509050610b3c9190610b40565b5090565b5b80821115610b59576000816000905550600101610b41565b5090565b6000610b70610b6b846110a3565b61107e565b90508083825260208201905082856020860282011115610b9357610b926113d3565b5b60005b85811015610bc35781610ba98882610cc1565b845260208401935060208301925050600181019050610b96565b5050509392505050565b6000610be0610bdb846110cf565b61107e565b905082815260208101848484011115610bfc57610bfb6113d8565b5b610c0784828561123a565b509392505050565b600082601f830112610c2457610c236113ce565b5b8135610c34848260208601610b5d565b91505092915050565b60008083601f840112610c5357610c526113ce565b5b8235905067ffffffffffffffff811115610c7057610c6f6113c9565b5b602083019150836001820283011115610c8c57610c8b6113d3565b5b9250929050565b600082601f830112610ca857610ca76113ce565b5b8135610cb8848260208601610bcd565b91505092915050565b600081359050610cd08161140f565b92915050565b600081519050610ce58161140f565b92915050565b60008060208385031215610d0257610d016113e2565b5b600083013567ffffffffffffffff811115610d2057610d1f6113dd565b5b610d2c85828601610c3d565b92509250509250929050565b600060208284031215610d4e57610d4d6113e2565b5b600082013567ffffffffffffffff811115610d6c57610d6b6113dd565b5b610d7884828501610c93565b91505092915050565b600060208284031215610d9757610d966113e2565b5b6000610da584828501610cc1565b91505092915050565b600060208284031215610dc457610dc36113e2565b5b6000610dd284828501610cd6565b91505092915050565b60008060408385031215610df257610df16113e2565b5b6000610e0085828601610cc1565b925050602083013567ffffffffffffffff811115610e2157610e206113dd565b5b610e2d85828601610c0f565b9150509250929050565b610e40816111f2565b82525050565b610e4f8161115b565b82525050565b610e5e8161116d565b82525050565b610e6d81611179565b82525050565b6000610e7e82611100565b610e88818561110b565b9350610e98818560208601611249565b610ea1816113e7565b840191505092915050565b610eb581611204565b82525050565b6000610ec860008361111c565b9150610ed3826113f8565b600082019050919050565b610ee781611196565b82525050565b610ef6816111c4565b82525050565b610f05816111ce565b82525050565b610f14816111de565b82525050565b6000610f2582610ebb565b9150819050919050565b6000602082019050610f446000830184610e46565b92915050565b6000602082019050610f5f6000830184610e37565b92915050565b6000604082019050610f7a6000830185610e46565b610f876020830184610e46565b9392505050565b6000604082019050610fa36000830185610e55565b8181036020830152610fb58184610e73565b90509392505050565b600060a082019050610fd36000830188610e64565b610fe06020830187610f0b565b610fed6040830186610ede565b610ffa6060830185610efc565b6110076080830184610efc565b9695505050505050565b60006020820190506110266000830184610eac565b92915050565b60006020820190506110416000830184610eed565b92915050565b600060608201905061105c6000830186610eed565b6110696020830185610eed565b6110766040830184610eed565b949350505050565b6000611088611099565b9050611094828261127c565b919050565b6000604051905090565b600067ffffffffffffffff8211156110be576110bd61139a565b5b602082029050602081019050919050565b600067ffffffffffffffff8211156110ea576110e961139a565b5b6110f3826113e7565b9050602081019050919050565b600081519050919050565b600082825260208201905092915050565b600081905092915050565b6000611132826111c4565b915061113d836111c4565b9250828210156111505761114f6112de565b5b828203905092915050565b6000611166826111a4565b9050919050565b60008115159050919050565b6000819050919050565b6000819050611191826113fb565b919050565b600061ffff82169050919050565b600073ffffffffffffffffffffffffffffffffffffffff82169050919050565b6000819050919050565b600063ffffffff82169050919050565b600067ffffffffffffffff82169050919050565b60006111fd82611216565b9050919050565b600061120f82611183565b9050919050565b600061122182611228565b9050919050565b6000611233826111a4565b9050919050565b82818337600083830152505050565b60005b8381101561126757808201518184015260208101905061124c565b83811115611276576000848401525b50505050565b611285826113e7565b810181811067ffffffffffffffff821117156112a4576112a361139a565b5b80604052505050565b60006112b8826111c4565b91506112c3836111c4565b9250826112d3576112d261130d565b5b828206905092915050565b7f4e487b7100000000000000000000000000000000000000000000000000000000600052601160045260246000fd5b7f4e487b7100000000000000000000000000000000000000000000000000000000600052601260045260246000fd5b7f4e487b7100000000000000000000000000000000000000000000000000000000600052602160045260246000fd5b7f4e487b7100000000000000000000000000000000000000000000000000000000600052603260045260246000fd5b7f4e487b7100000000000000000000000000000000000000000000000000000000600052604160045260246000fd5b600080fd5b600080fd5b600080fd5b600080fd5b600080fd5b600080fd5b6000601f19601f8301169050919050565b50565b6002811061140c5761140b61133c565b5b50565b611418816111c4565b811461142357600080fd5b5056fea2646970667358221220dd8d91460e64558ff5a92bb3c072fa1cbe494354e7abf2be27d2d175c950623564736f6c63430008070033",
  "linkReferences": {},
  "deployedLinkReferences": {}
}