{
  "_format": "hh-sol-artifact-1",
  "contractName": "Lottery",
  "sourceName": "contracts/Lottery.sol",
  "abi": [
    {
      "inputs": [
        {
          "internalType": "address",
          "name": "vrfCoordinator",
          "type": "address"
        },
        {
          "internalType": "uint256",
          "name": "ethAmount",
          "type": "uint256"
        },
        {
          "internalType": "bytes32",
          "name": "keyHash",
          "type": "bytes32"
        },
        {
          "internalType": "uint64",
          "name": "subscriptionId",
          "type": "uint64"
        },
        {
          "internalType": "uint32",
          "name": "callbackGasLimit",
          "type": "uint32"
        },
        {
          "internalType": "uint256",
          "name": "interval",
          "type": "uint256"
        }
      ],
      "stateMutability": "nonpayable",
      "type": "constructor"
    },
    {
      "inputs": [],
      "name": "Lottery__EthIsNotEnough",
      "type": "error"
    },
    {
      "inputs": [],
      "name": "Lottery__RaffleStateOpen",
      "type": "error"
    },
    {
      "inputs": [],
      "name": "Lottery__TransferFailed",
      "type": "error"
    },
    {
      "inputs": [
        {
          "internalType": "address",
          "name": "have",
          "type": "address"
        },
        {
          "internalType": "address",
          "name": "want",
          "type": "address"
        }
      ],
      "name": "OnlyCoordinatorCanFulfill",
      "type": "error"
    },
    {
      "inputs": [
        {
          "internalType": "uint256",
          "name": "currentBalance",
          "type": "uint256"
        },
        {
          "internalType": "uint256",
          "name": "numPlayers",
          "type": "uint256"
        },
        {
          "internalType": "uint256",
          "name": "raffleState",
          "type": "uint256"
        }
      ],
      "name": "RaffleState__UpkeepNotNeeded",
      "type": "error"
    },
    {
      "anonymous": false,
      "inputs": [
        {
          "indexed": true,
          "internalType": "address",
          "name": "player",
          "type": "address"
        }
      ],
      "name": "lotteryFund",
      "type": "event"
    },
    {
      "anonymous": false,
      "inputs": [
        {
          "indexed": false,
          "internalType": "uint256",
          "name": "requestId",
          "type": "uint256"
        }
      ],
      "name": "requestedRandomWinner",
      "type": "event"
    },
    {
      "anonymous": false,
      "inputs": [
        {
          "indexed": false,
          "internalType": "address",
          "name": "randomWinner",
          "type": "address"
        }
      ],
      "name": "winnerAddress",
      "type": "event"
    },
    {
      "inputs": [
        {
          "internalType": "bytes",
          "name": "",
          "type": "bytes"
        }
      ],
      "name": "checkUpkeep",
      "outputs": [
        {
          "internalType": "bool",
          "name": "upkeepNeeded",
          "type": "bool"
        },
        {
          "internalType": "bytes",
          "name": "",
          "type": "bytes"
        }
      ],
      "stateMutability": "view",
      "type": "function"
    },
    {
      "inputs": [],
      "name": "fundLottery",
      "outputs": [],
      "stateMutability": "payable",
      "type": "function"
    },
    {
      "inputs": [],
      "name": "getEthAmount",
      "outputs": [
        {
          "internalType": "uint256",
          "name": "",
          "type": "uint256"
        }
      ],
      "stateMutability": "view",
      "type": "function"
    },
    {
      "inputs": [],
      "name": "getInterval",
      "outputs": [
        {
          "internalType": "uint256",
          "name": "",
          "type": "uint256"
        }
      ],
      "stateMutability": "view",
      "type": "function"
    },
    {
      "inputs": [],
      "name": "getLastTimeStamp",
      "outputs": [
        {
          "internalType": "uint256",
          "name": "",
          "type": "uint256"
        }
      ],
      "stateMutability": "view",
      "type": "function"
    },
    {
      "inputs": [],
      "name": "getNumberOfPlayers",
      "outputs": [
        {
          "internalType": "uint256",
          "name": "",
          "type": "uint256"
        }
      ],
      "stateMutability": "view",
      "type": "function"
    },
    {
      "inputs": [
        {
          "internalType": "uint256",
          "name": "index",
          "type": "uint256"
        }
      ],
      "name": "getPlayer",
      "outputs": [
        {
          "internalType": "address",
          "name": "",
          "type": "address"
        }
      ],
      "stateMutability": "view",
      "type": "function"
    },
    {
      "inputs": [],
      "name": "getRaffleState",
      "outputs": [
        {
          "internalType": "enum Lottery.RaffleState",
          "name": "",
          "type": "uint8"
        }
      ],
      "stateMutability": "view",
      "type": "function"
    },
    {
      "inputs": [],
      "name": "getRecentWinner",
      "outputs": [
        {
          "internalType": "address",
          "name": "",
          "type": "address"
        }
      ],
      "stateMutability": "view",
      "type": "function"
    },
    {
      "inputs": [],
      "name": "getVRFCoordinator",
      "outputs": [
        {
          "internalType": "contract VRFCoordinatorV2Interface",
          "name": "",
          "type": "address"
        }
      ],
      "stateMutability": "view",
      "type": "function"
    },
    {
      "inputs": [],
      "name": "getnumWords",
      "outputs": [
        {
          "internalType": "uint256",
          "name": "",
          "type": "uint256"
        }
      ],
      "stateMutability": "pure",
      "type": "function"
    },
    {
      "inputs": [
        {
          "internalType": "bytes",
          "name": "",
          "type": "bytes"
        }
      ],
      "name": "performUpkeep",
      "outputs": [],
      "stateMutability": "nonpayable",
      "type": "function"
    },
    {
      "inputs": [
        {
          "internalType": "uint256",
          "name": "requestId",
          "type": "uint256"
        },
        {
          "internalType": "uint256[]",
          "name": "randomWords",
          "type": "uint256[]"
        }
      ],
      "name": "rawFulfillRandomWords",
      "outputs": [],
      "stateMutability": "nonpayable",
      "type": "function"
    }
  ],
  "bytecode": "0x6101606040523480156200001257600080fd5b5060405162002bbb38038062002bbb833981810160405281019062000038919062000524565b858073ffffffffffffffffffffffffffffffffffffffff1660808173ffffffffffffffffffffffffffffffffffffffff1660601b8152505050620000a57fb1e2c686f3c5d570fb328e2b1fe47a7f51ba927d10d94321d05533d38365390460001b620004ae60201b60201c565b620000d97f8c9ee0c45a1afd19fc7b4e0e13bac0bfe9e153a49de604631dfc04c2b941327a60001b620004ae60201b60201c565b6200010d7f06a5cd39eb1076932b3a63205ec60ea6eee6d7e24c2f946a73b63a4b0211d9ba60001b620004ae60201b60201c565b8460a08181525050620001497fa39103a558cdc99d2fedcd22d7b9ebb7067b79c6b98fd903f0b03c0ede43d8e560001b620004ae60201b60201c565b6200017d7fa547a80d7ffc2afa60a6a3ad6c88ff2b277c2022c3be13df25023ea2feb3d62060001b620004ae60201b60201c565b8573ffffffffffffffffffffffffffffffffffffffff1660c08173ffffffffffffffffffffffffffffffffffffffff1660601b81525050620001e87f98188511674b865c86836ebef6154009f9f277f8f520dfc71e3637bf18cd2cd760001b620004ae60201b60201c565b6200021c7f619ed1520378dd43ab6f34bb81615644d6013dc4be7e4f0964e05d99bf8d907f60001b620004ae60201b60201c565b8360e08181525050620002587fea46f13b9033679b8fd6e38526c84470a233107c17af1f86d0431178d5ad421460001b620004ae60201b60201c565b6200028c7f229d652fb1c8377245c829990a6772de8a4e1af7c606df660ba951b9d557e2bd60001b620004ae60201b60201c565b8267ffffffffffffffff166101008167ffffffffffffffff1660c01b81525050620002e07fce3e872afcdb1929365f682a62cd43c8940b9cf8af29221b74f2062fb5933bcc60001b620004ae60201b60201c565b620003147fbeafe6725a5b1daf9bc50f95625528d5228c7eedf6de959b297f6bef933c204c60001b620004ae60201b60201c565b8163ffffffff166101208163ffffffff1660e01b81525050620003607f13f99cf60f5adb3657803f3399674d311a16798ee866742744f4e1baa590c6c160001b620004ae60201b60201c565b620003947f3cba8f7cd60a890db0f7b74835ff5e44e379f5bb9807ec1fd54b833e5d46664260001b620004ae60201b60201c565b6000600160146101000a81548160ff02191690836001811115620003bd57620003bc6200062c565b5b0217905550620003f67f796e1e37b0d75fa5041da5ca2b7282147102861a3f8826b406318e128be691ed60001b620004ae60201b60201c565b6200042a7fa97b100c8c6f4a069d13eb4389a97bccbb0e4c33e19d2a3c374701c8b5dbdc3c60001b620004ae60201b60201c565b42600281905550620004657fda4b4b461fe39b5320d53eaf3ed4763c9b055dcd223a4570b5a6a6f67691750860001b620004ae60201b60201c565b620004997ff0423ba10215f4dd6492e319486f4accffb6601725e3915d6ff38bda9ba7b54c60001b620004ae60201b60201c565b806101408181525050505050505050620006e2565b50565b600081519050620004c28162000660565b92915050565b600081519050620004d9816200067a565b92915050565b600081519050620004f08162000694565b92915050565b6000815190506200050781620006ae565b92915050565b6000815190506200051e81620006c8565b92915050565b60008060008060008060c087890312156200054457620005436200065b565b5b60006200055489828a01620004b1565b96505060206200056789828a01620004df565b95505060406200057a89828a01620004c8565b94505060606200058d89828a016200050d565b9350506080620005a089828a01620004f6565b92505060a0620005b389828a01620004df565b9150509295509295509295565b6000620005cd82620005de565b9050919050565b6000819050919050565b600073ffffffffffffffffffffffffffffffffffffffff82169050919050565b6000819050919050565b600063ffffffff82169050919050565b600067ffffffffffffffff82169050919050565b7f4e487b7100000000000000000000000000000000000000000000000000000000600052602160045260246000fd5b600080fd5b6200066b81620005c0565b81146200067757600080fd5b50565b6200068581620005d4565b81146200069157600080fd5b50565b6200069f81620005fe565b8114620006ab57600080fd5b50565b620006b98162000608565b8114620006c557600080fd5b50565b620006d38162000618565b8114620006df57600080fd5b50565b60805160601c60a05160c05160601c60e0516101005160c01c6101205160e01c610140516124566200076560003960008181610c8f0152610dc6015260006107c20152600061079f0152600061077e0152600081816107420152610e7201526000818161037e0152610f1c01526000818161043f015261049301526124566000f3fe6080604052600436106100c25760003560e01c80636e04ff0d1161007f578063b5cc453911610059578063b5cc453914610259578063c1c244e814610263578063e55ae4e81461028e578063fd6673f5146102cb576100c2565b80636e04ff0d146101c557806391ad27b414610203578063a378f3711461022e576100c2565b8063087d01df146100c7578063115cbaf5146100f25780631fe543e31461011d5780634585e33b14610146578063473f1ddc1461016f57806367f483661461019a575b600080fd5b3480156100d357600080fd5b506100dc6102f6565b6040516100e99190612014565b60405180910390f35b3480156100fe57600080fd5b506101076103a2565b6040516101149190611ff9565b60405180910390f35b34801561012957600080fd5b50610144600480360381019061013f9190611d99565b61043d565b005b34801561015257600080fd5b5061016d60048036038101906101689190611ca9565b6104fd565b005b34801561017b57600080fd5b5061018461096e565b6040516101919190611efc565b60405180910390f35b3480156101a657600080fd5b506101af610a1c565b6040516101bc9190612014565b60405180910390f35b3480156101d157600080fd5b506101ec60048036038101906101e79190611cf6565b610aaf565b6040516101fa929190611f5b565b60405180910390f35b34801561020f57600080fd5b50610218610d3e565b6040516102259190612014565b60405180910390f35b34801561023a57600080fd5b50610243610dea565b6040516102509190611fde565b60405180910390f35b610261610e96565b005b34801561026f57600080fd5b50610278611299565b6040516102859190612014565b60405180910390f35b34801561029a57600080fd5b506102b560048036038101906102b09190611d3f565b611327565b6040516102c29190611efc565b60405180910390f35b3480156102d757600080fd5b506102e06113f3565b6040516102ed9190612014565b60405180910390f35b60006103247fe70a26f47eef896655fa1593ff2b88124773f8d0b14f719ae84e7edb0f48fac060001b611484565b6103507fd8a221e0c6c1289d3b440f0c5d2a727710e164484e28e035ffa88438c5f1b62160001b611484565b61037c7f2242c82e1b8164f30dba0da977ab210e04c92c70e2169abb221c76ccf2c2698460001b611484565b7f0000000000000000000000000000000000000000000000000000000000000000905090565b60006103d07f92358aea2ffe21c262111540f14b4c2b5a7f70ac81ec9949f0c3223dd55eef1560001b611484565b6103fc7fad03f71d44173cbfb41e15439c82775565e08a26330c976d7d65c83f82c89f6360001b611484565b6104287fa37349a1e4e7901184177acd65f8ba6879b5dfe046fc5f5c1fc6a2ae3cd2b7b760001b611484565b600160149054906101000a900460ff16905090565b7f000000000000000000000000000000000000000000000000000000000000000073ffffffffffffffffffffffffffffffffffffffff163373ffffffffffffffffffffffffffffffffffffffff16146104ef57337f00000000000000000000000000000000000000000000000000000000000000006040517f1cf993f40000000000000000000000000000000000000000000000000000000081526004016104e6929190611f32565b60405180910390fd5b6104f98282611487565b5050565b6105297fc246b0c76efc1bb0fdb18ca1c3d19d55f617745bd208d8d7b78b22efd7b808dc60001b611484565b6105557f2d888ac5626f6239f8f5909656cbd47687114456a203aae7882b13bbb1cfa20460001b611484565b6105817f600286ec5875480b107a9db82cfd1fcdd060c8411dacac4e297e7291b6b1e4c860001b611484565b600061059b60405180602001604052806000815250610aaf565b5090506105ca7f962aee89d2cc4e0257ee4a7d4c0942d0569d15685edd421dda42ddb533a39d3160001b611484565b6105f67f56d463c535397ccf519e3d6513a873e9972c65ea20f97eee926639810dfce79a60001b611484565b806106ba576106277fcee4626e995db668d8344dc229b1bf6b3b5e9ee18f5a29492ad22c9f4eafaf7c60001b611484565b6106537f520d6da0e37ecbdbccc2be64e8dc8fb94b1b497fcb8c1b14f7e24b77b48b59bc60001b611484565b47600080549050600160149054906101000a900460ff16600181111561067c5761067b612336565b5b6040517f3a22ecac0000000000000000000000000000000000000000000000000000000081526004016106b19392919061202f565b60405180910390fd5b6106e67f1a78a4719e9225ff00d6a535c2996ece0bc7c3adfcfc45e5323cc7d17ce9751d60001b611484565b6107127fbc7a8a89b2e4b8b36029159def5ff867202671969e0e2618576655c0cfe795d760001b611484565b61073e7fd2315dd68e095cf21f4ce3837b618f0cf4ecc83371adadeebe4bb433f530412060001b611484565b60007f000000000000000000000000000000000000000000000000000000000000000073ffffffffffffffffffffffffffffffffffffffff16635d3b1d307f00000000000000000000000000000000000000000000000000000000000000007f000000000000000000000000000000000000000000000000000000000000000060037f000000000000000000000000000000000000000000000000000000000000000060016040518663ffffffff1660e01b8152600401610803959493929190611f8b565b602060405180830381600087803b15801561081d57600080fd5b505af1158015610831573d6000803e3d6000fd5b505050506040513d601f19601f820116820180604052508101906108559190611d6c565b90506108837f1967142d6c380118e01a83c926dd2bc00912632a2c72e1657ce1cf18def69e7f60001b611484565b6108af7fbd00f9937a7ca9c00c4ba9d4277306335d27fba271632611c325420de63bab0560001b611484565b60018060146101000a81548160ff021916908360018111156108d4576108d3612336565b5b02179055506109057f9d3c0ff7b5323a89072238ff624b07870a436f9925260c50d8d6bf1f4089320d60001b611484565b6109317fda3d2f006d121febae1675c1fc89b61aab9ecaba1ebe04e4a3ffc966b2a9307360001b611484565b7fdd178cd66913b03cc6ff7831dcbaab26c0ba151b22ace716e22f93551917c87c816040516109609190612014565b60405180910390a150505050565b600061099c7fa76ecda1e86125030edc546b777a70ab662d96a550275058b7a7c24b75f5a47c60001b611484565b6109c87fc54bdf09fec4fdac96096e60ba376c27e4476306f52ff4e3606bf10ba78b5b7a60001b611484565b6109f47f7e5fa2d30478e84b6264a740c39ec8b2b8d913e01560600bb98c63dd1ab5aab460001b611484565b600160009054906101000a900473ffffffffffffffffffffffffffffffffffffffff16905090565b6000610a4a7fc54a48c6c4bc58a5f07026154ca2d8037510157ece94de1faf0071ffe0cfe34660001b611484565b610a767f64e87910c11a272fdf847f9cc8f94fb2fc2430177711939214f22c5801f794ee60001b611484565b610aa27f305ece1d9876c1db55f019d1b22678cf6fa45c92fec383749f23da6e3a4c07ea60001b611484565b600163ffffffff16905090565b60006060610adf7fbc6814df49e2c36b0585e2aa6bc4155ec90ee347cfa45229824e97724cc8c8b760001b611484565b610b0b7fcd2b1c38d7b95e421838fefb6e0831942580e8b1d5497150940580b7b21f701460001b611484565b610b377f0e29c1f2ad14c3c6f9c5bb9f12579889723b0ad0890918486968f1c12ab353c160001b611484565b6000806001811115610b4c57610b4b612336565b5b600160149054906101000a900460ff166001811115610b6e57610b6d612336565b5b149050610b9d7ffcc555fd5253bfabb043307036a6bd39fc24a34003d6d8bdb0862b8232b6457d60001b611484565b610bc97fdc1fc5d580d42b27ec84ded8f9c35ea5573e62c915240576fa6bf697ff03988e60001b611484565b600080600080549050119050610c007e12329de0b7d20b56c20439dd11dd2b5d0e279ea676103f25eaa291c922d0ef60001b611484565b610c2c7fe197afa3519f6df8479aa9ecf4f9413d323d9ab86646694ac2e2055f4742b88a60001b611484565b60008047119050610c5f7f33c53888854c2a33fa4d29f5bd5ec86da5ea03556ca164b3835e0d2a232fd64b60001b611484565b610c8b7fd3715f40696c70ba2186c314d697cf906f87758c520faa0641513556a21b152360001b611484565b60007f000000000000000000000000000000000000000000000000000000000000000060025442610cbc919061210f565b119050610ceb7f489186abf045d7b34902e584a4bb643cd07742f7edb06fbd6a27343970b0ec5760001b611484565b610d177fc2971cf47ebf2d0d2b6f915b3d2572d700c7de244218194517b0a0b20e3ab7f260001b611484565b838015610d215750825b8015610d2a5750815b8015610d335750805b955050505050915091565b6000610d6c7fe130b19ad04f4c82d6fd35c76aac7beb2a10fa5934b2aaf38c0eabd13ec02eb160001b611484565b610d987f1df263112ee6df51020365c8f90eeb7600476cbf4fd64a80c91c55da3c8462c960001b611484565b610dc47f3d0204f2be87f450fa04d3aa46c0008a95c5a8b95f4e3e9e11e8fbdade5b0c5c60001b611484565b7f0000000000000000000000000000000000000000000000000000000000000000905090565b6000610e187fd8118f6e2252b8337ddae21dafe69280ea47470e2c4804bd9dffe49d8307ede860001b611484565b610e447f412d79089d77d3f4dc7d7c812db299d35d9eed82138c01d5fd36593daa4281ba60001b611484565b610e707f9b2641cf94ddcefa81b0d2042c5fd1af76b27e511914a4e5f01a99838292794f60001b611484565b7f0000000000000000000000000000000000000000000000000000000000000000905090565b610ec27f84c2b8cbb81cd457142f203ac42edc83cdd974c4e5c925a53c586e2efc506fc960001b611484565b610eee7f8b75ec0cc1121bc8608357468ad4aeead954a01da48038cbf48759ed5517b63e60001b611484565b610f1a7f1a73ae4de5c3e016e191f5355172cfe9f7a37bbadd0b8b7f0f563f29cd17c7b860001b611484565b7f0000000000000000000000000000000000000000000000000000000000000000341015610fcc57610f6e7f07bfa3be134c34c9d132e67e75a8b6b3fff492d48d6b55a8ccc43b2edbb2d24860001b611484565b610f9a7f4f232c8a75e2699a0a0d40d51a3ea5433ab66bba51ac6f8250cf0e4bf25908c860001b611484565b6040517f6bcdbf0200000000000000000000000000000000000000000000000000000000815260040160405180910390fd5b610ff87f4dc6b254de6d3458f0f3e8d16fabc0523a3628207524f5551f99a54a4e65f2d460001b611484565b6110247fd5ca47aabf74c04cb16f0a7a70ed7f7a5a969402051bd2fd3d9e35eb36343b5160001b611484565b6110507feea32948d2936c6e5c90fb242f1f05f7dff41bc047d965fd5e0c0b84b37f1e9e60001b611484565b6000600181111561106457611063612336565b5b600160149054906101000a900460ff16600181111561108657611085612336565b5b14611115576110b77f80fbd0b59c7a2cf6c86476d4c52f1a4c794b29181fcb7a747f582df39038ebda60001b611484565b6110e37f30a1f8b10f23100b39f965e4f7047478d33fec67e52ca7bbe6a05d157b529e2860001b611484565b6040517f7197a89000000000000000000000000000000000000000000000000000000000815260040160405180910390fd5b6111417f6f5d2e58fa372851fa2746d4f72142ae7e9820a2569c89e328acd31c425c2ddf60001b611484565b61116d7f27085adfa6a9cfee98a0968c32d499410d4bd3d6e26118bd33956e04011e3c2f60001b611484565b6111997f581b397d6b0fe227d6a7619377b82459996979864cb048305c22f9779fa8ab5960001b611484565b6000339080600181540180825580915050600190039060005260206000200160009091909190916101000a81548173ffffffffffffffffffffffffffffffffffffffff021916908373ffffffffffffffffffffffffffffffffffffffff1602179055506112287fa5d05bd224e563176bec4dfa0ba863ec6a5431310b7c1e9b0628cdf537fe377960001b611484565b6112547fbfe34454168f84e45bcbf20db4dad74aada5d587249842f4ea1c926a7de8c6f660001b611484565b3373ffffffffffffffffffffffffffffffffffffffff167f1e387e9bc77e6bf4c9773912b8be31aa329afd7fe0acfd57f5dadb739de8765e60405160405180910390a2565b60006112c77f85f287b182e3ff16cf372ec3605753701025e97810cf3f299dd1ad0a7307390460001b611484565b6112f37fac830bdc88e7fe1326a53b56377ba9be06b709a1aa2d0c84f08c16eea811d1e360001b611484565b61131f7f1ce2c945b3805c2bfea8d627e2bad7d0b1acd69c344963d6fbc7686afc34a9ea60001b611484565b600254905090565b60006113557f9989546cd6c00cad61fd271d8d0d4cc1aaff21681e3123cd265d51909a9f7cfd60001b611484565b6113817fc3f8de7444496aa3c6696e9cedfb5f76ba3d2d05f262a745560a63d9a0096c3260001b611484565b6113ad7fc165f32572618d4b34c575e2095d9d5d346c8c9dababf17a2559f644170740e660001b611484565b600082815481106113c1576113c0612365565b5b9060005260206000200160009054906101000a900473ffffffffffffffffffffffffffffffffffffffff169050919050565b60006114217f795732908866f89e37cf04fd5d463e39428199323b30af944f957abe43cc198760001b611484565b61144d7f97022b9106e150535c382a902d6d4660f9470f8e074c86c11fe2c6e80ad401c260001b611484565b6114797f720aadde5ce12299e67e534edf748266ec72231dbe0936b2ba0766ccb3e7219360001b611484565b600080549050905090565b50565b6114b37fc78c0ba423f4c3d47d255043a683a6afde859628ec1a256dd208647ab1a9f91560001b611484565b6114df7f3beebfec0f8b9213f1a02bd9f750f1bbf537f8e1516c40aef3c3135dd9e235c760001b611484565b61150b7fae07025b170e58d596011cdca5bdc11b1fb3abc4ce32a4b6eb9289ae7d8b7aa160001b611484565b600080805490508260008151811061152657611525612365565b5b602002602001015161153891906122a7565b90506115667fdbb1416047e1ff8ee16cacdc021340c617adfac6e93637664b60ba485d7b57ca60001b611484565b6115927f53586bc85cfb6a8bffe7085c9c65bf9b545e729ef4e32bad52e21b1faa8ae0a360001b611484565b60008082815481106115a7576115a6612365565b5b9060005260206000200160009054906101000a900473ffffffffffffffffffffffffffffffffffffffff1690506116007fd8ae990c424cc24a2bf0de8ce01824a4d38c9d038c7652536a340c1b77deb25e60001b611484565b61162c7f9d4e7a15cfbdfdc6e43ca5e27f0b328b094b4b4157cc544f89be6a5ac89a8b6f60001b611484565b80600160006101000a81548173ffffffffffffffffffffffffffffffffffffffff021916908373ffffffffffffffffffffffffffffffffffffffff1602179055506116997f2b7188b9dc9cda562423f2466a5d3d104699df131c073a5dcee344bce9097c0d60001b611484565b6116c57fd1091bcdbcf491be17892d0ed36d3c2fecc77aee9e44c37f7c37ff300608bd8c60001b611484565b6000600160146101000a81548160ff021916908360018111156116eb576116ea612336565b5b021790555061171c7f300ebe1207553f758d357f5c60d8c77b9fb6fa03da6cb9d4c02a3f4bf81e2c9c60001b611484565b6117487f4b0c8765aa240d22516f737c039571cf74cd288f351c4df44a5c10be9b0c3ef360001b611484565b600067ffffffffffffffff81111561176357611762612394565b5b6040519080825280602002602001820160405280156117915781602001602082028036833780820191505090505b50600090805190602001906117a7929190611a74565b506117d47f1fd048c5abdd0a3e29bbbd243f755d9f2ae92a00281788ee1ff8c9beac6bd32760001b611484565b6118007fb9bb3441d087070766d467ffc923c270c4f88b3db36dc2d478f8630799b104b560001b611484565b426002819055506118337f1740342cfd251346fe95852fbd47eea26858c1e591d009f33fb4f10e7861563860001b611484565b61185f7fb3f5d185f6deb4da85d6f836b59f8d1a96822bf1290fd89f3a2b10e0b9b44ebf60001b611484565b60008173ffffffffffffffffffffffffffffffffffffffff164760405161188590611ee7565b60006040518083038185875af1925050503d80600081146118c2576040519150601f19603f3d011682016040523d82523d6000602084013e6118c7565b606091505b505090506118f77fe4730cb9b580660c947ce49034bbcf3ecc37a56deef709e6c958612208ad3b0b60001b611484565b6119237fff8c2764e836da8f9a6076652be0444b14464f966cf5f85e41656921bdace56c60001b611484565b806119b2576119547f6981754ae3d8d3f7d726fb8824d138f31e238c65bb9b816a6ce1b1a32e3de9ac60001b611484565b6119807f34f76fee17714a8e8aafca2d4563710391016ca997d547771ad712f44b2e797460001b611484565b6040517f1c94012000000000000000000000000000000000000000000000000000000000815260040160405180910390fd5b6119de7f4c3a29f5f52f714b2f564ab3e4e0b5bbe1d7d895c8f06da6b07c89d5a740442660001b611484565b611a0a7ff9132982f6b77139abed261af28336b2c1a416d7e1da362511c004efedd90d2e60001b611484565b611a367f78e81502b337238a7b4fc860126b3a8b8db98d149828e16c554e80eb17c79a8f60001b611484565b7f97327fd6694d3df45480784b7731f13ecffcae0f296816eec3de6f43bf02f72882604051611a659190611f17565b60405180910390a15050505050565b828054828255906000526020600020908101928215611aed579160200282015b82811115611aec5782518260006101000a81548173ffffffffffffffffffffffffffffffffffffffff021916908373ffffffffffffffffffffffffffffffffffffffff16021790555091602001919060010190611a94565b5b509050611afa9190611afe565b5090565b5b80821115611b17576000816000905550600101611aff565b5090565b6000611b2e611b298461208b565b612066565b90508083825260208201905082856020860282011115611b5157611b506123cd565b5b60005b85811015611b815781611b678882611c7f565b845260208401935060208301925050600181019050611b54565b5050509392505050565b6000611b9e611b99846120b7565b612066565b905082815260208101848484011115611bba57611bb96123d2565b5b611bc5848285612234565b509392505050565b600082601f830112611be257611be16123c8565b5b8135611bf2848260208601611b1b565b91505092915050565b60008083601f840112611c1157611c106123c8565b5b8235905067ffffffffffffffff811115611c2e57611c2d6123c3565b5b602083019150836001820283011115611c4a57611c496123cd565b5b9250929050565b600082601f830112611c6657611c656123c8565b5b8135611c76848260208601611b8b565b91505092915050565b600081359050611c8e81612409565b92915050565b600081519050611ca381612409565b92915050565b60008060208385031215611cc057611cbf6123dc565b5b600083013567ffffffffffffffff811115611cde57611cdd6123d7565b5b611cea85828601611bfb565b92509250509250929050565b600060208284031215611d0c57611d0b6123dc565b5b600082013567ffffffffffffffff811115611d2a57611d296123d7565b5b611d3684828501611c51565b91505092915050565b600060208284031215611d5557611d546123dc565b5b6000611d6384828501611c7f565b91505092915050565b600060208284031215611d8257611d816123dc565b5b6000611d9084828501611c94565b91505092915050565b60008060408385031215611db057611daf6123dc565b5b6000611dbe85828601611c7f565b925050602083013567ffffffffffffffff811115611ddf57611dde6123d7565b5b611deb85828601611bcd565b9150509250929050565b611dfe816121da565b82525050565b611e0d81612143565b82525050565b611e1c81612155565b82525050565b611e2b81612161565b82525050565b6000611e3c826120e8565b611e4681856120f3565b9350611e56818560208601612243565b611e5f816123e1565b840191505092915050565b611e73816121ec565b82525050565b611e82816121fe565b82525050565b6000611e95600083612104565b9150611ea0826123f2565b600082019050919050565b611eb48161217e565b82525050565b611ec3816121ac565b82525050565b611ed2816121b6565b82525050565b611ee1816121c6565b82525050565b6000611ef282611e88565b9150819050919050565b6000602082019050611f116000830184611e04565b92915050565b6000602082019050611f2c6000830184611df5565b92915050565b6000604082019050611f476000830185611e04565b611f546020830184611e04565b9392505050565b6000604082019050611f706000830185611e13565b8181036020830152611f828184611e31565b90509392505050565b600060a082019050611fa06000830188611e22565b611fad6020830187611ed8565b611fba6040830186611eab565b611fc76060830185611ec9565b611fd46080830184611ec9565b9695505050505050565b6000602082019050611ff36000830184611e6a565b92915050565b600060208201905061200e6000830184611e79565b92915050565b60006020820190506120296000830184611eba565b92915050565b60006060820190506120446000830186611eba565b6120516020830185611eba565b61205e6040830184611eba565b949350505050565b6000612070612081565b905061207c8282612276565b919050565b6000604051905090565b600067ffffffffffffffff8211156120a6576120a5612394565b5b602082029050602081019050919050565b600067ffffffffffffffff8211156120d2576120d1612394565b5b6120db826123e1565b9050602081019050919050565b600081519050919050565b600082825260208201905092915050565b600081905092915050565b600061211a826121ac565b9150612125836121ac565b925082821015612138576121376122d8565b5b828203905092915050565b600061214e8261218c565b9050919050565b60008115159050919050565b6000819050919050565b6000819050612179826123f5565b919050565b600061ffff82169050919050565b600073ffffffffffffffffffffffffffffffffffffffff82169050919050565b6000819050919050565b600063ffffffff82169050919050565b600067ffffffffffffffff82169050919050565b60006121e582612210565b9050919050565b60006121f782612210565b9050919050565b60006122098261216b565b9050919050565b600061221b82612222565b9050919050565b600061222d8261218c565b9050919050565b82818337600083830152505050565b60005b83811015612261578082015181840152602081019050612246565b83811115612270576000848401525b50505050565b61227f826123e1565b810181811067ffffffffffffffff8211171561229e5761229d612394565b5b80604052505050565b60006122b2826121ac565b91506122bd836121ac565b9250826122cd576122cc612307565b5b828206905092915050565b7f4e487b7100000000000000000000000000000000000000000000000000000000600052601160045260246000fd5b7f4e487b7100000000000000000000000000000000000000000000000000000000600052601260045260246000fd5b7f4e487b7100000000000000000000000000000000000000000000000000000000600052602160045260246000fd5b7f4e487b7100000000000000000000000000000000000000000000000000000000600052603260045260246000fd5b7f4e487b7100000000000000000000000000000000000000000000000000000000600052604160045260246000fd5b600080fd5b600080fd5b600080fd5b600080fd5b600080fd5b600080fd5b6000601f19601f8301169050919050565b50565b6002811061240657612405612336565b5b50565b612412816121ac565b811461241d57600080fd5b5056fea2646970667358221220840415296ff8d6d7ec283b101f73443e8093697c22e6d11a5d11889d2beacbde64736f6c63430008070033",
  "linkReferences": {},
  "deployedLinkReferences": {}
}