{
  "_format": "hh-sol-artifact-1",
  "contractName": "Lottery",
  "sourceName": "contracts/Lottery.sol",
  "abi": [
    {
      "inputs": [
        {
          "internalType": "address",
          "name": "vrfCoordinator",
          "type": "address"
        },
        {
          "internalType": "uint256",
          "name": "ethAmount",
          "type": "uint256"
        },
        {
          "internalType": "bytes32",
          "name": "keyHash",
          "type": "bytes32"
        },
        {
          "internalType": "uint64",
          "name": "subscriptionId",
          "type": "uint64"
        },
        {
          "internalType": "uint32",
          "name": "callbackGasLimit",
          "type": "uint32"
        },
        {
          "internalType": "uint256",
          "name": "interval",
          "type": "uint256"
        }
      ],
      "stateMutability": "nonpayable",
      "type": "constructor"
    },
    {
      "inputs": [],
      "name": "Lottery__EthIsNotEnough",
      "type": "error"
    },
    {
      "inputs": [],
      "name": "Lottery__RaffleStateOpen",
      "type": "error"
    },
    {
      "inputs": [],
      "name": "Lottery__TransferFailed",
      "type": "error"
    },
    {
      "inputs": [
        {
          "internalType": "address",
          "name": "have",
          "type": "address"
        },
        {
          "internalType": "address",
          "name": "want",
          "type": "address"
        }
      ],
      "name": "OnlyCoordinatorCanFulfill",
      "type": "error"
    },
    {
      "inputs": [
        {
          "internalType": "uint256",
          "name": "currentBalance",
          "type": "uint256"
        },
        {
          "internalType": "uint256",
          "name": "numPlayers",
          "type": "uint256"
        },
        {
          "internalType": "uint256",
          "name": "raffleState",
          "type": "uint256"
        }
      ],
      "name": "RaffleState__UpkeepNotNeeded",
      "type": "error"
    },
    {
      "anonymous": false,
      "inputs": [
        {
          "indexed": true,
          "internalType": "address",
          "name": "player",
          "type": "address"
        }
      ],
      "name": "lotteryFund",
      "type": "event"
    },
    {
      "anonymous": false,
      "inputs": [
        {
          "indexed": false,
          "internalType": "uint256",
          "name": "requestId",
          "type": "uint256"
        }
      ],
      "name": "requestedRandomWinner",
      "type": "event"
    },
    {
      "anonymous": false,
      "inputs": [
        {
          "indexed": false,
          "internalType": "address",
          "name": "randomWinner",
          "type": "address"
        }
      ],
      "name": "winnerAddress",
      "type": "event"
    },
    {
      "inputs": [
        {
          "internalType": "bytes",
          "name": "",
          "type": "bytes"
        }
      ],
      "name": "checkUpkeep",
      "outputs": [
        {
          "internalType": "bool",
          "name": "upkeepNeeded",
          "type": "bool"
        },
        {
          "internalType": "bytes",
          "name": "",
          "type": "bytes"
        }
      ],
      "stateMutability": "view",
      "type": "function"
    },
    {
      "inputs": [],
      "name": "fundLottery",
      "outputs": [],
      "stateMutability": "payable",
      "type": "function"
    },
    {
      "inputs": [],
      "name": "getEthAmount",
      "outputs": [
        {
          "internalType": "uint256",
          "name": "",
          "type": "uint256"
        }
      ],
      "stateMutability": "view",
      "type": "function"
    },
    {
      "inputs": [
        {
          "internalType": "uint256",
          "name": "index",
          "type": "uint256"
        }
      ],
      "name": "getPlayer",
      "outputs": [
        {
          "internalType": "address",
          "name": "",
          "type": "address"
        }
      ],
      "stateMutability": "view",
      "type": "function"
    },
    {
      "inputs": [],
      "name": "getRaffleState",
      "outputs": [
        {
          "internalType": "enum Lottery.RaffleState",
          "name": "",
          "type": "uint8"
        }
      ],
      "stateMutability": "view",
      "type": "function"
    },
    {
      "inputs": [],
      "name": "getRecentWinner",
      "outputs": [
        {
          "internalType": "address",
          "name": "",
          "type": "address"
        }
      ],
      "stateMutability": "view",
      "type": "function"
    },
    {
      "inputs": [],
      "name": "getnumWords",
      "outputs": [
        {
          "internalType": "uint256",
          "name": "",
          "type": "uint256"
        }
      ],
      "stateMutability": "pure",
      "type": "function"
    },
    {
      "inputs": [
        {
          "internalType": "bytes",
          "name": "",
          "type": "bytes"
        }
      ],
      "name": "performUpkeep",
      "outputs": [],
      "stateMutability": "nonpayable",
      "type": "function"
    },
    {
      "inputs": [
        {
          "internalType": "uint256",
          "name": "requestId",
          "type": "uint256"
        },
        {
          "internalType": "uint256[]",
          "name": "randomWords",
          "type": "uint256[]"
        }
      ],
      "name": "rawFulfillRandomWords",
      "outputs": [],
      "stateMutability": "nonpayable",
      "type": "function"
    }
  ],
  "bytecode": "0x6101606040523480156200001257600080fd5b506040516200175c3803806200175c8339818101604052810190620000389190620001ad565b858073ffffffffffffffffffffffffffffffffffffffff1660808173ffffffffffffffffffffffffffffffffffffffff1660601b81525050508460a081815250508573ffffffffffffffffffffffffffffffffffffffff1660c08173ffffffffffffffffffffffffffffffffffffffff1660601b815250508360e081815250508267ffffffffffffffff166101008167ffffffffffffffff1660c01b815250508163ffffffff166101208163ffffffff1660e01b815250506000600160146101000a81548160ff02191690836001811115620001195762000118620002b5565b5b0217905550426002819055508061014081815250505050505050506200036b565b6000815190506200014b81620002e9565b92915050565b600081519050620001628162000303565b92915050565b60008151905062000179816200031d565b92915050565b600081519050620001908162000337565b92915050565b600081519050620001a78162000351565b92915050565b60008060008060008060c08789031215620001cd57620001cc620002e4565b5b6000620001dd89828a016200013a565b9650506020620001f089828a0162000168565b95505060406200020389828a0162000151565b94505060606200021689828a0162000196565b93505060806200022989828a016200017f565b92505060a06200023c89828a0162000168565b9150509295509295509295565b6000620002568262000267565b9050919050565b6000819050919050565b600073ffffffffffffffffffffffffffffffffffffffff82169050919050565b6000819050919050565b600063ffffffff82169050919050565b600067ffffffffffffffff82169050919050565b7f4e487b7100000000000000000000000000000000000000000000000000000000600052602160045260246000fd5b600080fd5b620002f48162000249565b81146200030057600080fd5b50565b6200030e816200025d565b81146200031a57600080fd5b50565b620003288162000287565b81146200033457600080fd5b50565b620003428162000291565b81146200034e57600080fd5b50565b6200035c81620002a1565b81146200036857600080fd5b50565b60805160601c60a05160c05160601c60e0516101005160c01c6101205160e01c6101405161137c620003e060003960006105a40152600061041a015260006103f7015260006103d60152600061039a01526000818161021201526105fd01526000818161024f01526102a3015261137c6000f3fe6080604052600436106100865760003560e01c8063473f1ddc11610059578063473f1ddc1461013357806367f483661461015e5780636e04ff0d14610189578063b5cc4539146101c7578063e55ae4e8146101d157610086565b8063087d01df1461008b578063115cbaf5146100b65780631fe543e3146100e15780634585e33b1461010a575b600080fd5b34801561009757600080fd5b506100a061020e565b6040516100ad9190610f4c565b60405180910390f35b3480156100c257600080fd5b506100cb610236565b6040516100d89190610f31565b60405180910390f35b3480156100ed57600080fd5b5061010860048036038101906101039190610cfb565b61024d565b005b34801561011657600080fd5b50610131600480360381019061012c9190610c0b565b61030d565b005b34801561013f57600080fd5b50610148610516565b6040516101559190610e4f565b60405180910390f35b34801561016a57600080fd5b50610173610540565b6040516101809190610f4c565b60405180910390f35b34801561019557600080fd5b506101b060048036038101906101ab9190610c58565b61054f565b6040516101be929190610eae565b60405180910390f35b6101cf6105fb565b005b3480156101dd57600080fd5b506101f860048036038101906101f39190610ca1565b61076a565b6040516102059190610e4f565b60405180910390f35b60007f0000000000000000000000000000000000000000000000000000000000000000905090565b6000600160149054906101000a900460ff16905090565b7f000000000000000000000000000000000000000000000000000000000000000073ffffffffffffffffffffffffffffffffffffffff163373ffffffffffffffffffffffffffffffffffffffff16146102ff57337f00000000000000000000000000000000000000000000000000000000000000006040517f1cf993f40000000000000000000000000000000000000000000000000000000081526004016102f6929190610e85565b60405180910390fd5b61030982826107b1565b5050565b60006103276040518060200160405280600081525061054f565b509050806103965747600080549050600160149054906101000a900460ff1660018111156103585761035761125c565b5b6040517f3a22ecac00000000000000000000000000000000000000000000000000000000815260040161038d93929190610f67565b60405180910390fd5b60007f000000000000000000000000000000000000000000000000000000000000000073ffffffffffffffffffffffffffffffffffffffff16635d3b1d307f00000000000000000000000000000000000000000000000000000000000000007f000000000000000000000000000000000000000000000000000000000000000060037f000000000000000000000000000000000000000000000000000000000000000060016040518663ffffffff1660e01b815260040161045b959493929190610ede565b602060405180830381600087803b15801561047557600080fd5b505af1158015610489573d6000803e3d6000fd5b505050506040513d601f19601f820116820180604052508101906104ad9190610cce565b905060018060146101000a81548160ff021916908360018111156104d4576104d361125c565b5b02179055507fdd178cd66913b03cc6ff7831dcbaab26c0ba151b22ace716e22f93551917c87c816040516105089190610f4c565b60405180910390a150505050565b6000600160009054906101000a900473ffffffffffffffffffffffffffffffffffffffff16905090565b6000600163ffffffff16905090565b6000606060008060018111156105685761056761125c565b5b600160149054906101000a900460ff16600181111561058a5761058961125c565b5b1490506000806000805490501190506000804711905060007f0000000000000000000000000000000000000000000000000000000000000000600254426105d19190611047565b1190508380156105de5750825b80156105e75750815b80156105f05750805b955050505050915091565b7f0000000000000000000000000000000000000000000000000000000000000000341015610655576040517f6bcdbf0200000000000000000000000000000000000000000000000000000000815260040160405180910390fd5b600060018111156106695761066861125c565b5b600160149054906101000a900460ff16600181111561068b5761068a61125c565b5b146106c2576040517f7197a89000000000000000000000000000000000000000000000000000000000815260040160405180910390fd5b6000339080600181540180825580915050600190039060005260206000200160009091909190916101000a81548173ffffffffffffffffffffffffffffffffffffffff021916908373ffffffffffffffffffffffffffffffffffffffff1602179055503373ffffffffffffffffffffffffffffffffffffffff167f1e387e9bc77e6bf4c9773912b8be31aa329afd7fe0acfd57f5dadb739de8765e60405160405180910390a2565b600080828154811061077f5761077e61128b565b5b9060005260206000200160009054906101000a900473ffffffffffffffffffffffffffffffffffffffff169050919050565b60008080549050826000815181106107cc576107cb61128b565b5b60200260200101516107de91906111cd565b905060008082815481106107f5576107f461128b565b5b9060005260206000200160009054906101000a900473ffffffffffffffffffffffffffffffffffffffff16905080600160006101000a81548173ffffffffffffffffffffffffffffffffffffffff021916908373ffffffffffffffffffffffffffffffffffffffff1602179055506000600160146101000a81548160ff021916908360018111156108895761088861125c565b5b0217905550600067ffffffffffffffff8111156108a9576108a86112ba565b5b6040519080825280602002602001820160405280156108d75781602001602082028036833780820191505090505b50600090805190602001906108ed9291906109d6565b504260028190555060008173ffffffffffffffffffffffffffffffffffffffff164760405161091b90610e3a565b60006040518083038185875af1925050503d8060008114610958576040519150601f19603f3d011682016040523d82523d6000602084013e61095d565b606091505b5050905080610998576040517f1c94012000000000000000000000000000000000000000000000000000000000815260040160405180910390fd5b7f97327fd6694d3df45480784b7731f13ecffcae0f296816eec3de6f43bf02f728826040516109c79190610e6a565b60405180910390a15050505050565b828054828255906000526020600020908101928215610a4f579160200282015b82811115610a4e5782518260006101000a81548173ffffffffffffffffffffffffffffffffffffffff021916908373ffffffffffffffffffffffffffffffffffffffff160217905550916020019190600101906109f6565b5b509050610a5c9190610a60565b5090565b5b80821115610a79576000816000905550600101610a61565b5090565b6000610a90610a8b84610fc3565b610f9e565b90508083825260208201905082856020860282011115610ab357610ab26112f3565b5b60005b85811015610ae35781610ac98882610be1565b845260208401935060208301925050600181019050610ab6565b5050509392505050565b6000610b00610afb84610fef565b610f9e565b905082815260208101848484011115610b1c57610b1b6112f8565b5b610b2784828561115a565b509392505050565b600082601f830112610b4457610b436112ee565b5b8135610b54848260208601610a7d565b91505092915050565b60008083601f840112610b7357610b726112ee565b5b8235905067ffffffffffffffff811115610b9057610b8f6112e9565b5b602083019150836001820283011115610bac57610bab6112f3565b5b9250929050565b600082601f830112610bc857610bc76112ee565b5b8135610bd8848260208601610aed565b91505092915050565b600081359050610bf08161132f565b92915050565b600081519050610c058161132f565b92915050565b60008060208385031215610c2257610c21611302565b5b600083013567ffffffffffffffff811115610c4057610c3f6112fd565b5b610c4c85828601610b5d565b92509250509250929050565b600060208284031215610c6e57610c6d611302565b5b600082013567ffffffffffffffff811115610c8c57610c8b6112fd565b5b610c9884828501610bb3565b91505092915050565b600060208284031215610cb757610cb6611302565b5b6000610cc584828501610be1565b91505092915050565b600060208284031215610ce457610ce3611302565b5b6000610cf284828501610bf6565b91505092915050565b60008060408385031215610d1257610d11611302565b5b6000610d2085828601610be1565b925050602083013567ffffffffffffffff811115610d4157610d406112fd565b5b610d4d85828601610b2f565b9150509250929050565b610d6081611112565b82525050565b610d6f8161107b565b82525050565b610d7e8161108d565b82525050565b610d8d81611099565b82525050565b6000610d9e82611020565b610da8818561102b565b9350610db8818560208601611169565b610dc181611307565b840191505092915050565b610dd581611124565b82525050565b6000610de860008361103c565b9150610df382611318565b600082019050919050565b610e07816110b6565b82525050565b610e16816110e4565b82525050565b610e25816110ee565b82525050565b610e34816110fe565b82525050565b6000610e4582610ddb565b9150819050919050565b6000602082019050610e646000830184610d66565b92915050565b6000602082019050610e7f6000830184610d57565b92915050565b6000604082019050610e9a6000830185610d66565b610ea76020830184610d66565b9392505050565b6000604082019050610ec36000830185610d75565b8181036020830152610ed58184610d93565b90509392505050565b600060a082019050610ef36000830188610d84565b610f006020830187610e2b565b610f0d6040830186610dfe565b610f1a6060830185610e1c565b610f276080830184610e1c565b9695505050505050565b6000602082019050610f466000830184610dcc565b92915050565b6000602082019050610f616000830184610e0d565b92915050565b6000606082019050610f7c6000830186610e0d565b610f896020830185610e0d565b610f966040830184610e0d565b949350505050565b6000610fa8610fb9565b9050610fb4828261119c565b919050565b6000604051905090565b600067ffffffffffffffff821115610fde57610fdd6112ba565b5b602082029050602081019050919050565b600067ffffffffffffffff82111561100a576110096112ba565b5b61101382611307565b9050602081019050919050565b600081519050919050565b600082825260208201905092915050565b600081905092915050565b6000611052826110e4565b915061105d836110e4565b9250828210156110705761106f6111fe565b5b828203905092915050565b6000611086826110c4565b9050919050565b60008115159050919050565b6000819050919050565b60008190506110b18261131b565b919050565b600061ffff82169050919050565b600073ffffffffffffffffffffffffffffffffffffffff82169050919050565b6000819050919050565b600063ffffffff82169050919050565b600067ffffffffffffffff82169050919050565b600061111d82611136565b9050919050565b600061112f826110a3565b9050919050565b600061114182611148565b9050919050565b6000611153826110c4565b9050919050565b82818337600083830152505050565b60005b8381101561118757808201518184015260208101905061116c565b83811115611196576000848401525b50505050565b6111a582611307565b810181811067ffffffffffffffff821117156111c4576111c36112ba565b5b80604052505050565b60006111d8826110e4565b91506111e3836110e4565b9250826111f3576111f261122d565b5b828206905092915050565b7f4e487b7100000000000000000000000000000000000000000000000000000000600052601160045260246000fd5b7f4e487b7100000000000000000000000000000000000000000000000000000000600052601260045260246000fd5b7f4e487b7100000000000000000000000000000000000000000000000000000000600052602160045260246000fd5b7f4e487b7100000000000000000000000000000000000000000000000000000000600052603260045260246000fd5b7f4e487b7100000000000000000000000000000000000000000000000000000000600052604160045260246000fd5b600080fd5b600080fd5b600080fd5b600080fd5b600080fd5b600080fd5b6000601f19601f8301169050919050565b50565b6002811061132c5761132b61125c565b5b50565b611338816110e4565b811461134357600080fd5b5056fea2646970667358221220e62e3f32313ad7493b433a0aee77b2ef7c766ece5af3fbc53cca4ade03be22ff64736f6c63430008070033",
  "linkReferences": {},
  "deployedLinkReferences": {}
}